{
  "abi": [
    {
      "inputs": [
        {
          "internalType": "uint256",
          "name": "_maxSupply",
          "type": "uint256"
        }
      ],
      "stateMutability": "nonpayable",
      "type": "constructor"
    },
    {
      "anonymous": false,
      "inputs": [
        {
          "indexed": true,
          "internalType": "bytes32",
          "name": "_userId",
          "type": "bytes32"
        },
        {
          "indexed": true,
          "internalType": "uint256",
          "name": "_points",
          "type": "uint256"
        },
        {
          "indexed": true,
          "internalType": "uint256",
          "name": "_couponId",
          "type": "uint256"
        }
      ],
      "name": "couponModified",
      "type": "event"
    },
    {
      "anonymous": false,
      "inputs": [
        {
          "indexed": true,
          "internalType": "address",
          "name": "_blockedOwner",
          "type": "address"
        }
      ],
      "name": "ownerBlocked",
      "type": "event"
    },
    {
      "anonymous": false,
      "inputs": [
        {
          "indexed": true,
          "internalType": "address",
          "name": "_newOwner",
          "type": "address"
        }
      ],
      "name": "ownerPrompt",
      "type": "event"
    },
    {
      "anonymous": false,
      "inputs": [
        {
          "indexed": true,
          "internalType": "address",
          "name": "_newOwner",
          "type": "address"
        }
      ],
      "name": "ownerSet",
      "type": "event"
    },
    {
      "anonymous": false,
      "inputs": [
        {
          "indexed": true,
          "internalType": "bytes32",
          "name": "_userId",
          "type": "bytes32"
        },
        {
          "indexed": true,
          "internalType": "uint256",
          "name": "_points",
          "type": "uint256"
        },
        {
          "indexed": true,
          "internalType": "uint256",
          "name": "_couponId",
          "type": "uint256"
        }
      ],
      "name": "pointsAllocated",
      "type": "event"
    },
    {
      "anonymous": false,
      "inputs": [
        {
          "indexed": true,
          "internalType": "bytes32",
          "name": "_userId",
          "type": "bytes32"
        },
        {
          "indexed": true,
          "internalType": "uint256",
          "name": "_points",
          "type": "uint256"
        },
        {
          "indexed": true,
          "internalType": "uint256",
          "name": "_couponId",
          "type": "uint256"
        }
      ],
      "name": "pointsExpired",
      "type": "event"
    },
    {
      "anonymous": false,
      "inputs": [
        {
          "indexed": true,
          "internalType": "bytes32",
          "name": "_userId",
          "type": "bytes32"
        },
        {
          "indexed": true,
          "internalType": "uint256",
          "name": "_points",
          "type": "uint256"
        },
        {
          "indexed": true,
          "internalType": "uint256",
          "name": "_couponId",
          "type": "uint256"
        }
      ],
      "name": "pointsRedeemed",
      "type": "event"
    },
    {
      "anonymous": false,
      "inputs": [
        {
          "indexed": true,
          "internalType": "bytes32",
          "name": "_userId",
          "type": "bytes32"
        },
        {
          "indexed": true,
          "internalType": "uint256",
          "name": "_points",
          "type": "uint256"
        },
        {
          "indexed": true,
          "internalType": "uint256",
          "name": "_redeemId",
          "type": "uint256"
        }
      ],
      "name": "pointsRedeemedDetails",
      "type": "event"
    },
    {
      "anonymous": false,
      "inputs": [
        {
          "indexed": true,
          "internalType": "bytes32",
          "name": "_userId",
          "type": "bytes32"
        },
        {
          "indexed": true,
          "internalType": "uint256",
          "name": "_points",
          "type": "uint256"
        }
      ],
      "name": "userPoints",
      "type": "event"
    },
    {
      "inputs": [
        {
          "internalType": "string",
          "name": "_userIdString",
          "type": "string"
        },
        {
          "internalType": "uint256",
          "name": "_points",
          "type": "uint256"
        },
        {
          "internalType": "uint256",
          "name": "_expiryDate",
          "type": "uint256"
        },
        {
          "internalType": "string",
          "name": "_refVia",
          "type": "string"
        }
      ],
      "name": "allocatePoints",
      "outputs": [],
      "stateMutability": "nonpayable",
      "type": "function"
    },
    {
      "inputs": [
        {
          "internalType": "address",
          "name": "_owner",
          "type": "address"
        }
      ],
      "name": "blockOwner",
      "outputs": [],
      "stateMutability": "nonpayable",
      "type": "function"
    },
    {
      "inputs": [],
      "name": "blockedOwnerCount",
      "outputs": [
        {
          "internalType": "uint256",
          "name": "",
          "type": "uint256"
        }
      ],
      "stateMutability": "view",
      "type": "function"
    },
    {
      "inputs": [
        {
          "internalType": "address",
          "name": "",
          "type": "address"
        }
      ],
      "name": "blockedOwnerToOwnerId",
      "outputs": [
        {
          "internalType": "uint256",
          "name": "",
          "type": "uint256"
        }
      ],
      "stateMutability": "view",
      "type": "function"
    },
    {
      "inputs": [],
      "name": "confirmOwner",
      "outputs": [],
      "stateMutability": "nonpayable",
      "type": "function"
    },
    {
      "inputs": [],
      "name": "couponCount",
      "outputs": [
        {
          "internalType": "uint256",
          "name": "",
          "type": "uint256"
        }
      ],
      "stateMutability": "view",
      "type": "function"
    },
    {
      "inputs": [
        {
          "internalType": "uint256",
          "name": "",
          "type": "uint256"
        }
      ],
      "name": "couponIdToExpiry",
      "outputs": [
        {
          "internalType": "uint256",
          "name": "",
          "type": "uint256"
        }
      ],
      "stateMutability": "view",
      "type": "function"
    },
    {
      "inputs": [
        {
          "internalType": "uint256",
          "name": "",
          "type": "uint256"
        }
      ],
      "name": "couponIdToPoints",
      "outputs": [
        {
          "internalType": "uint256",
          "name": "",
          "type": "uint256"
        }
      ],
      "stateMutability": "view",
      "type": "function"
    },
    {
      "inputs": [
        {
          "internalType": "uint256",
          "name": "",
          "type": "uint256"
        }
      ],
      "name": "couponIdToRefVia",
      "outputs": [
        {
          "internalType": "string",
          "name": "",
          "type": "string"
        }
      ],
      "stateMutability": "view",
      "type": "function"
    },
    {
      "inputs": [
        {
          "internalType": "uint256",
          "name": "",
          "type": "uint256"
        }
      ],
      "name": "couponIdToUserId",
      "outputs": [
        {
          "internalType": "bytes32",
          "name": "",
          "type": "bytes32"
        }
      ],
      "stateMutability": "view",
      "type": "function"
    },
    {
      "inputs": [
        {
          "internalType": "string",
          "name": "_userIdString",
          "type": "string"
        }
      ],
      "name": "getUserPoints",
      "outputs": [
        {
          "internalType": "uint256",
          "name": "",
          "type": "uint256"
        }
      ],
      "stateMutability": "nonpayable",
      "type": "function"
    },
    {
      "inputs": [],
      "name": "maxSupply",
      "outputs": [
        {
          "internalType": "uint256",
          "name": "",
          "type": "uint256"
        }
      ],
      "stateMutability": "view",
      "type": "function"
    },
    {
      "inputs": [
        {
          "internalType": "uint256",
          "name": "_couponId",
          "type": "uint256"
        },
        {
          "internalType": "uint256",
          "name": "_points",
          "type": "uint256"
        }
      ],
      "name": "modifyCouponPoints",
      "outputs": [],
      "stateMutability": "nonpayable",
      "type": "function"
    },
    {
      "inputs": [],
      "name": "newOwnerPending",
      "outputs": [
        {
          "internalType": "address",
          "name": "",
          "type": "address"
        }
      ],
      "stateMutability": "view",
      "type": "function"
    },
    {
      "inputs": [],
      "name": "ownerCount",
      "outputs": [
        {
          "internalType": "uint256",
          "name": "",
          "type": "uint256"
        }
      ],
      "stateMutability": "view",
      "type": "function"
    },
    {
      "inputs": [
        {
          "internalType": "address",
          "name": "",
          "type": "address"
        }
      ],
      "name": "ownerToOwnerId",
      "outputs": [
        {
          "internalType": "uint256",
          "name": "",
          "type": "uint256"
        }
      ],
      "stateMutability": "view",
      "type": "function"
    },
    {
      "inputs": [],
      "name": "redeemCount",
      "outputs": [
        {
          "internalType": "uint256",
          "name": "",
          "type": "uint256"
        }
      ],
      "stateMutability": "view",
      "type": "function"
    },
    {
      "inputs": [
        {
          "internalType": "uint256",
          "name": "",
          "type": "uint256"
        }
      ],
      "name": "redeemIdToRefId",
      "outputs": [
        {
          "internalType": "string",
          "name": "",
          "type": "string"
        }
      ],
      "stateMutability": "view",
      "type": "function"
    },
    {
      "inputs": [
        {
          "internalType": "string",
          "name": "_userIdString",
          "type": "string"
        },
        {
          "internalType": "uint256",
          "name": "_points",
          "type": "uint256"
        },
        {
          "internalType": "string",
          "name": "_refId",
          "type": "string"
        }
      ],
      "name": "redeemUserPoints",
      "outputs": [],
      "stateMutability": "nonpayable",
      "type": "function"
    },
    {
      "inputs": [
        {
          "internalType": "address",
          "name": "_newOwner",
          "type": "address"
        }
      ],
      "name": "setOwner",
      "outputs": [],
      "stateMutability": "nonpayable",
      "type": "function"
    },
    {
      "inputs": [],
      "name": "totalSupply",
      "outputs": [
        {
          "internalType": "uint256",
          "name": "",
          "type": "uint256"
        }
      ],
      "stateMutability": "view",
      "type": "function"
    },
    {
      "inputs": [
        {
          "internalType": "bytes32",
          "name": "",
          "type": "bytes32"
        }
      ],
      "name": "userIdToString",
      "outputs": [
        {
          "internalType": "string",
          "name": "",
          "type": "string"
        }
      ],
      "stateMutability": "view",
      "type": "function"
    },
    {
      "inputs": [
        {
          "internalType": "string",
          "name": "",
          "type": "string"
        }
      ],
      "name": "userStringToId",
      "outputs": [
        {
          "internalType": "bytes32",
          "name": "",
          "type": "bytes32"
        }
      ],
      "stateMutability": "view",
      "type": "function"
    }
  ],
  "bytecode": "60806040526000600a556000600f5534801561001a57600080fd5b506040516114cc3803806114cc8339810160408190526100399161005b565b6005556000600381905560018082553382526020819052604090912055610074565b60006020828403121561006d57600080fd5b5051919050565b611449806100836000396000f3fe608060405234801561001057600080fd5b506004361061014d5760003560e01c80635da30494116100c3578063bd9b6d861161007c578063bd9b6d86146102f7578063c8daa824146102ff578063d0e2392314610312578063d5431c9b1461031b578063d5abeb011461032e578063eb8b4c111461033757600080fd5b80635da304941461027757806360987984146102a257806387d11c69146102b557806388be6c59146102be57806396749e41146102d15780639dca2789146102e457600080fd5b8063128b0a5d11610115578063128b0a5d146101d057806313af4035146101f0578063172659b31461020357806318160ddd1461022357806349b3b4d91461022c5780634a36393d1461025757600080fd5b8063096ff3bb146101525780630d751fb51461017b5780630db02622146101905780630e5f8793146101a7578063126717cd146101c7575b600080fd5b610165610160366004610f4c565b610357565b6040516101729190610f95565b60405180910390f35b61018e61018936600461106b565b6103f1565b005b61019960005481565b604051908152602001610172565b6101996101b5366004610f4c565b600d6020526000908152604090205481565b610199600f5481565b6101996101de3660046110d8565b60016020526000908152604090205481565b61018e6101fe3660046110d8565b61066f565b610199610211366004610f4c565b600c6020526000908152604090205481565b61019960065481565b61019961023a366004611108565b805160208183018101805160098252928201919093012091525481565b6101996102653660046110d8565b60046020526000908152604090205481565b60025461028a906001600160a01b031681565b6040516001600160a01b039091168152602001610172565b6101996102b0366004611108565b61076f565b61019960035481565b61018e6102cc366004611145565b61084b565b61018e6102df3660046111bc565b610a9e565b6101656102f2366004610f4c565b610c4e565b61018e610c67565b61018e61030d3660046110d8565b610d20565b610199600a5481565b610165610329366004610f4c565b610e2b565b61019960055481565b610199610345366004610f4c565b600b6020526000908152604090205481565b600e6020526000908152604090208054610370906111de565b80601f016020809104026020016040519081016040528092919081815260200182805461039c906111de565b80156103e95780601f106103be576101008083540402835291602001916103e9565b820191906000526020600020905b8154815290600101906020018083116103cc57829003601f168201915b505050505081565b336000908152600160205260409020546104265760405162461bcd60e51b815260040161041d90611218565b60405180910390fd5b33600090815260046020526040902054156104535760405162461bcd60e51b815260040161041d9061125a565b600083604051602001610466919061128a565b60405160208183030381529060405280519060200120905060006104898561076f565b905083811061066857600f546104a09060016112bc565b600f81905560009081526010602052604090206104bd8482611323565b50600f54604051859084907f5ebfe9d3e35987a08b09902b37a80285a0f7871ebab17d24cf01904c336bf99390600090a4600060015b85821080156105045750600a548111155b15610665576000818152600c60205260409020541580159061053357506000818152600b602052604090205484145b1561065357600061054483886113e3565b6000838152600c602052604090205490915081116105cd578060065461056a91906113e3565b6006556040518290829087907f12f4285b54ea369a9ebba8573a153d19bd6e7973c2f6c2021e0551d7b03bac2c90600090a46000828152600c60205260409020546105b69082906113e3565b6000838152600c6020526040902055869250610651565b6000828152600c60205260409020546006546105e991906113e3565b6006556000828152600c6020526040808220549051849288917f12f4285b54ea369a9ebba8573a153d19bd6e7973c2f6c2021e0551d7b03bac2c9190a46000828152600c602052604090205461063f90846112bc565b6000838152600c602052604081205592505b505b61065e8160016112bc565b90506104f3565b50505b5050505050565b3360009081526001602052604090205461069b5760405162461bcd60e51b815260040161041d90611218565b33600090815260046020526040902054156106c85760405162461bcd60e51b815260040161041d9061125a565b6001600160a01b038116600090815260016020526040902054156107255760405162461bcd60e51b815260206004820152601460248201527327bbb732b91030b63932b0b23c9030b23232b21760611b604482015260640161041d565b600280546001600160a01b0319166001600160a01b0383169081179091556040517ffd3a5e4b503decb6f2105334e91454f7b0b58d7472b00b512094469ee5fe58f490600090a250565b3360009081526001602052604081205461079b5760405162461bcd60e51b815260040161041d90611218565b33600090815260046020526040902054156107c85760405162461bcd60e51b815260040161041d9061125a565b6000826040516020016107db919061128a565b6040516020818303038152906040528051906020012090506107fc81610e44565b600081815260076020526040808220549051909183917fc29117027fb5683fd9adce4683c07052ca12ccc532277f5b8c3039c6735b7f299190a360009081526007602052604090205492915050565b336000908152600160205260409020546108775760405162461bcd60e51b815260040161041d90611218565b33600090815260046020526040902054156108a45760405162461bcd60e51b815260040161041d9061125a565b600554836006546108b591906112bc565b11156109035760405162461bcd60e51b815260206004820152601e60248201527f4d6178696d756d20706f696e7473206c696d69742065786365656465642e0000604482015260640161041d565b4282116109615760405162461bcd60e51b815260206004820152602660248201527f45787069727920646174652073686f756c64206e6f7420626520696e20746865604482015265103830b9ba1760d11b606482015260840161041d565b600084604051602001610974919061128a565b60405160208183030381529060405280519060200120905061099581610e44565b6000818152600760205260409020546109af9085906112bc565b600082815260076020526040902055600a546109cc9060016112bc565b600a8190556000908152600b60209081526040808320849055838352600890915290206109f98682611323565b5080600986604051610a0b919061128a565b908152604080516020928190038301902092909255600a80546000908152600c835283812088905581548152600d835283812087905590548152600e90915220610a558382611323565b5083600654610a6491906112bc565b600655600a54604051859083907f339f6fe8bf902a0dda530e650c8a3de3f3e329e9fb61c8035822c2d68acb04c390600090a45050505050565b33600090815260016020526040902054610aca5760405162461bcd60e51b815260040161041d90611218565b3360009081526004602052604090205415610af75760405162461bcd60e51b815260040161041d9061125a565b6000828152600d60205260409020544210610b545760405162461bcd60e51b815260206004820152601b60248201527f436f75706f6e2068617320616c726561647920657870697265642e0000000000604482015260640161041d565b6005546000838152600c6020526040902054600654610b749084906112bc565b610b7e91906113e3565b1115610bd85760405162461bcd60e51b8152602060048201526024808201527f506f696e7473206c696d697420686173206578636565646564206d6178206c6960448201526336b4ba1760e11b606482015260840161041d565b6000828152600c6020526040902054600654610bf59083906112bc565b610bff91906113e3565b6006556000828152600c60209081526040808320849055600b90915280822054905184928492917f3f89f2657dfea821783e53be29fbfad773de186e57d2f5620ce98c51a2921b219190a45050565b60086020526000908152604090208054610370906111de565b6002546001600160a01b03163314610cc15760405162461bcd60e51b815260206004820152601960248201527f596f7520617265206e6f7420746865206e6577206f776e657200000000000000604482015260640161041d565b600054610ccf9060016112bc565b6000818155600280546001600160a01b0390811683526001602052604080842094909455905492519216917f02e3cdb0a1a6322f9160f5e33c21f317e6f18e77c771778f9be6d0752f9f988b9190a2565b33600090815260016020526040902054610d4c5760405162461bcd60e51b815260040161041d90611218565b3360009081526004602052604090205415610d795760405162461bcd60e51b815260040161041d9061125a565b6001600160a01b0381163303610dd15760405162461bcd60e51b815260206004820152601960248201527f596f752063616e6e6f7420626c6f636b20796f757273656c6600000000000000604482015260640161041d565b600354610ddf9060016112bc565b60038190556001600160a01b03821660008181526004602052604080822093909355915190917fcc7b1cde74aa849556f2ca38ee1150dd5bd56fc225130e6c38eb0c2b6530557091a250565b60106020526000908152604090208054610370906111de565b600060015b600a548111610f39576000818152600c602052604090205415610f27576000818152600d60205260409020544210610ef5576000818152600c6020526040902054600654610e9791906113e3565b6006556000818152600b6020908152604080832054600c9092528083205490519192849284917fc25c39153635e38307a1ea5f18fb182aebb0037838d19ede4d6eddd0ad18822b91a4506000818152600c6020526040812055610f27565b6000818152600b6020526040902054839003610f27576000818152600c6020526040902054610f2490836112bc565b91505b80610f31816113fa565b915050610e49565b5060009182526007602052604090912055565b600060208284031215610f5e57600080fd5b5035919050565b60005b83811015610f80578181015183820152602001610f68565b83811115610f8f576000848401525b50505050565b6020815260008251806020840152610fb4816040850160208701610f65565b601f01601f19169190910160400192915050565b634e487b7160e01b600052604160045260246000fd5b600082601f830112610fef57600080fd5b813567ffffffffffffffff8082111561100a5761100a610fc8565b604051601f8301601f19908116603f0116810190828211818310171561103257611032610fc8565b8160405283815286602085880101111561104b57600080fd5b836020870160208301376000602085830101528094505050505092915050565b60008060006060848603121561108057600080fd5b833567ffffffffffffffff8082111561109857600080fd5b6110a487838801610fde565b94506020860135935060408601359150808211156110c157600080fd5b506110ce86828701610fde565b9150509250925092565b6000602082840312156110ea57600080fd5b81356001600160a01b038116811461110157600080fd5b9392505050565b60006020828403121561111a57600080fd5b813567ffffffffffffffff81111561113157600080fd5b61113d84828501610fde565b949350505050565b6000806000806080858703121561115b57600080fd5b843567ffffffffffffffff8082111561117357600080fd5b61117f88838901610fde565b9550602087013594506040870135935060608701359150808211156111a357600080fd5b506111b087828801610fde565b91505092959194509250565b600080604083850312156111cf57600080fd5b50508035926020909101359150565b600181811c908216806111f257607f821691505b60208210810361121257634e487b7160e01b600052602260045260246000fd5b50919050565b60208082526022908201527f4f6e6c79206f776e65722063616e2063616c6c20746869732066756e6374696f604082015261371760f11b606082015260800190565b6020808252601690820152752cb7ba903430bb32903132b2b710313637b1b5b2b21760511b604082015260600190565b6000825161129c818460208701610f65565b9190910192915050565b634e487b7160e01b600052601160045260246000fd5b600082198211156112cf576112cf6112a6565b500190565b601f82111561131e57600081815260208120601f850160051c810160208610156112fb5750805b601f850160051c820191505b8181101561131a57828155600101611307565b5050505b505050565b815167ffffffffffffffff81111561133d5761133d610fc8565b6113518161134b84546111de565b846112d4565b602080601f831160018114611386576000841561136e5750858301515b600019600386901b1c1916600185901b17855561131a565b600085815260208120601f198616915b828110156113b557888601518255948401946001909101908401611396565b50858210156113d35787850151600019600388901b60f8161c191681555b5050505050600190811b01905550565b6000828210156113f5576113f56112a6565b500390565b60006001820161140c5761140c6112a6565b506001019056fea2646970667358221220fe68d62f4b4fb7d176b38e79ca9a750e35c9f7ea0e3e251ea9362843c3f5621764736f6c634300080f0033",
  "bytecodeSha1": "8151a11a0cd1dee175a58054f1ce806745505ac6",
  "compiler": {
    "evm_version": "istanbul",
    "optimizer": {
      "enabled": true,
      "runs": 200
    },
    "version": "0.8.15+commit.e14f2714"
  },
  "contractName": "Loyalty3",
  "language": "Solidity",
  "natspec": {
    "kind": "dev",
    "methods": {},
    "version": 1
  },
  "opcodes": "PUSH1 0x80 PUSH1 0x40 MSTORE CALLVALUE DUP1 ISZERO PUSH2 0x10 JUMPI PUSH1 0x0 DUP1 REVERT JUMPDEST POP PUSH1 0x4 CALLDATASIZE LT PUSH2 0x14D JUMPI PUSH1 0x0 CALLDATALOAD PUSH1 0xE0 SHR DUP1 PUSH4 0x5DA30494 GT PUSH2 0xC3 JUMPI DUP1 PUSH4 0xBD9B6D86 GT PUSH2 0x7C JUMPI DUP1 PUSH4 0xBD9B6D86 EQ PUSH2 0x2F7 JUMPI DUP1 PUSH4 0xC8DAA824 EQ PUSH2 0x2FF JUMPI DUP1 PUSH4 0xD0E23923 EQ PUSH2 0x312 JUMPI DUP1 PUSH4 0xD5431C9B EQ PUSH2 0x31B JUMPI DUP1 PUSH4 0xD5ABEB01 EQ PUSH2 0x32E JUMPI DUP1 PUSH4 0xEB8B4C11 EQ PUSH2 0x337 JUMPI PUSH1 0x0 DUP1 REVERT JUMPDEST DUP1 PUSH4 0x5DA30494 EQ PUSH2 0x277 JUMPI DUP1 PUSH4 0x60987984 EQ PUSH2 0x2A2 JUMPI DUP1 PUSH4 0x87D11C69 EQ PUSH2 0x2B5 JUMPI DUP1 PUSH4 0x88BE6C59 EQ PUSH2 0x2BE JUMPI DUP1 PUSH4 0x96749E41 EQ PUSH2 0x2D1 JUMPI DUP1 PUSH4 0x9DCA2789 EQ PUSH2 0x2E4 JUMPI PUSH1 0x0 DUP1 REVERT JUMPDEST DUP1 PUSH4 0x128B0A5D GT PUSH2 0x115 JUMPI DUP1 PUSH4 0x128B0A5D EQ PUSH2 0x1D0 JUMPI DUP1 PUSH4 0x13AF4035 EQ PUSH2 0x1F0 JUMPI DUP1 PUSH4 0x172659B3 EQ PUSH2 0x203 JUMPI DUP1 PUSH4 0x18160DDD EQ PUSH2 0x223 JUMPI DUP1 PUSH4 0x49B3B4D9 EQ PUSH2 0x22C JUMPI DUP1 PUSH4 0x4A36393D EQ PUSH2 0x257 JUMPI PUSH1 0x0 DUP1 REVERT JUMPDEST DUP1 PUSH4 0x96FF3BB EQ PUSH2 0x152 JUMPI DUP1 PUSH4 0xD751FB5 EQ PUSH2 0x17B JUMPI DUP1 PUSH4 0xDB02622 EQ PUSH2 0x190 JUMPI DUP1 PUSH4 0xE5F8793 EQ PUSH2 0x1A7 JUMPI DUP1 PUSH4 0x126717CD EQ PUSH2 0x1C7 JUMPI JUMPDEST PUSH1 0x0 DUP1 REVERT JUMPDEST PUSH2 0x165 PUSH2 0x160 CALLDATASIZE PUSH1 0x4 PUSH2 0xF4C JUMP JUMPDEST PUSH2 0x357 JUMP JUMPDEST PUSH1 0x40 MLOAD PUSH2 0x172 SWAP2 SWAP1 PUSH2 0xF95 JUMP JUMPDEST PUSH1 0x40 MLOAD DUP1 SWAP2 SUB SWAP1 RETURN JUMPDEST PUSH2 0x18E PUSH2 0x189 CALLDATASIZE PUSH1 0x4 PUSH2 0x106B JUMP JUMPDEST PUSH2 0x3F1 JUMP JUMPDEST STOP JUMPDEST PUSH2 0x199 PUSH1 0x0 SLOAD DUP2 JUMP JUMPDEST PUSH1 0x40 MLOAD SWAP1 DUP2 MSTORE PUSH1 0x20 ADD PUSH2 0x172 JUMP JUMPDEST PUSH2 0x199 PUSH2 0x1B5 CALLDATASIZE PUSH1 0x4 PUSH2 0xF4C JUMP JUMPDEST PUSH1 0xD PUSH1 0x20 MSTORE PUSH1 0x0 SWAP1 DUP2 MSTORE PUSH1 0x40 SWAP1 KECCAK256 SLOAD DUP2 JUMP JUMPDEST PUSH2 0x199 PUSH1 0xF SLOAD DUP2 JUMP JUMPDEST PUSH2 0x199 PUSH2 0x1DE CALLDATASIZE PUSH1 0x4 PUSH2 0x10D8 JUMP JUMPDEST PUSH1 0x1 PUSH1 0x20 MSTORE PUSH1 0x0 SWAP1 DUP2 MSTORE PUSH1 0x40 SWAP1 KECCAK256 SLOAD DUP2 JUMP JUMPDEST PUSH2 0x18E PUSH2 0x1FE CALLDATASIZE PUSH1 0x4 PUSH2 0x10D8 JUMP JUMPDEST PUSH2 0x66F JUMP JUMPDEST PUSH2 0x199 PUSH2 0x211 CALLDATASIZE PUSH1 0x4 PUSH2 0xF4C JUMP JUMPDEST PUSH1 0xC PUSH1 0x20 MSTORE PUSH1 0x0 SWAP1 DUP2 MSTORE PUSH1 0x40 SWAP1 KECCAK256 SLOAD DUP2 JUMP JUMPDEST PUSH2 0x199 PUSH1 0x6 SLOAD DUP2 JUMP JUMPDEST PUSH2 0x199 PUSH2 0x23A CALLDATASIZE PUSH1 0x4 PUSH2 0x1108 JUMP JUMPDEST DUP1 MLOAD PUSH1 0x20 DUP2 DUP4 ADD DUP2 ADD DUP1 MLOAD PUSH1 0x9 DUP3 MSTORE SWAP3 DUP3 ADD SWAP2 SWAP1 SWAP4 ADD KECCAK256 SWAP2 MSTORE SLOAD DUP2 JUMP JUMPDEST PUSH2 0x199 PUSH2 0x265 CALLDATASIZE PUSH1 0x4 PUSH2 0x10D8 JUMP JUMPDEST PUSH1 0x4 PUSH1 0x20 MSTORE PUSH1 0x0 SWAP1 DUP2 MSTORE PUSH1 0x40 SWAP1 KECCAK256 SLOAD DUP2 JUMP JUMPDEST PUSH1 0x2 SLOAD PUSH2 0x28A SWAP1 PUSH1 0x1 PUSH1 0x1 PUSH1 0xA0 SHL SUB AND DUP2 JUMP JUMPDEST PUSH1 0x40 MLOAD PUSH1 0x1 PUSH1 0x1 PUSH1 0xA0 SHL SUB SWAP1 SWAP2 AND DUP2 MSTORE PUSH1 0x20 ADD PUSH2 0x172 JUMP JUMPDEST PUSH2 0x199 PUSH2 0x2B0 CALLDATASIZE PUSH1 0x4 PUSH2 0x1108 JUMP JUMPDEST PUSH2 0x76F JUMP JUMPDEST PUSH2 0x199 PUSH1 0x3 SLOAD DUP2 JUMP JUMPDEST PUSH2 0x18E PUSH2 0x2CC CALLDATASIZE PUSH1 0x4 PUSH2 0x1145 JUMP JUMPDEST PUSH2 0x84B JUMP JUMPDEST PUSH2 0x18E PUSH2 0x2DF CALLDATASIZE PUSH1 0x4 PUSH2 0x11BC JUMP JUMPDEST PUSH2 0xA9E JUMP JUMPDEST PUSH2 0x165 PUSH2 0x2F2 CALLDATASIZE PUSH1 0x4 PUSH2 0xF4C JUMP JUMPDEST PUSH2 0xC4E JUMP JUMPDEST PUSH2 0x18E PUSH2 0xC67 JUMP JUMPDEST PUSH2 0x18E PUSH2 0x30D CALLDATASIZE PUSH1 0x4 PUSH2 0x10D8 JUMP JUMPDEST PUSH2 0xD20 JUMP JUMPDEST PUSH2 0x199 PUSH1 0xA SLOAD DUP2 JUMP JUMPDEST PUSH2 0x165 PUSH2 0x329 CALLDATASIZE PUSH1 0x4 PUSH2 0xF4C JUMP JUMPDEST PUSH2 0xE2B JUMP JUMPDEST PUSH2 0x199 PUSH1 0x5 SLOAD DUP2 JUMP JUMPDEST PUSH2 0x199 PUSH2 0x345 CALLDATASIZE PUSH1 0x4 PUSH2 0xF4C JUMP JUMPDEST PUSH1 0xB PUSH1 0x20 MSTORE PUSH1 0x0 SWAP1 DUP2 MSTORE PUSH1 0x40 SWAP1 KECCAK256 SLOAD DUP2 JUMP JUMPDEST PUSH1 0xE PUSH1 0x20 MSTORE PUSH1 0x0 SWAP1 DUP2 MSTORE PUSH1 0x40 SWAP1 KECCAK256 DUP1 SLOAD PUSH2 0x370 SWAP1 PUSH2 0x11DE JUMP JUMPDEST DUP1 PUSH1 0x1F ADD PUSH1 0x20 DUP1 SWAP2 DIV MUL PUSH1 0x20 ADD PUSH1 0x40 MLOAD SWAP1 DUP2 ADD PUSH1 0x40 MSTORE DUP1 SWAP3 SWAP2 SWAP1 DUP2 DUP2 MSTORE PUSH1 0x20 ADD DUP3 DUP1 SLOAD PUSH2 0x39C SWAP1 PUSH2 0x11DE JUMP JUMPDEST DUP1 ISZERO PUSH2 0x3E9 JUMPI DUP1 PUSH1 0x1F LT PUSH2 0x3BE JUMPI PUSH2 0x100 DUP1 DUP4 SLOAD DIV MUL DUP4 MSTORE SWAP2 PUSH1 0x20 ADD SWAP2 PUSH2 0x3E9 JUMP JUMPDEST DUP3 ADD SWAP2 SWAP1 PUSH1 0x0 MSTORE PUSH1 0x20 PUSH1 0x0 KECCAK256 SWAP1 JUMPDEST DUP2 SLOAD DUP2 MSTORE SWAP1 PUSH1 0x1 ADD SWAP1 PUSH1 0x20 ADD DUP1 DUP4 GT PUSH2 0x3CC JUMPI DUP3 SWAP1 SUB PUSH1 0x1F AND DUP3 ADD SWAP2 JUMPDEST POP POP POP POP POP DUP2 JUMP JUMPDEST CALLER PUSH1 0x0 SWAP1 DUP2 MSTORE PUSH1 0x1 PUSH1 0x20 MSTORE PUSH1 0x40 SWAP1 KECCAK256 SLOAD PUSH2 0x426 JUMPI PUSH1 0x40 MLOAD PUSH3 0x461BCD PUSH1 0xE5 SHL DUP2 MSTORE PUSH1 0x4 ADD PUSH2 0x41D SWAP1 PUSH2 0x1218 JUMP JUMPDEST PUSH1 0x40 MLOAD DUP1 SWAP2 SUB SWAP1 REVERT JUMPDEST CALLER PUSH1 0x0 SWAP1 DUP2 MSTORE PUSH1 0x4 PUSH1 0x20 MSTORE PUSH1 0x40 SWAP1 KECCAK256 SLOAD ISZERO PUSH2 0x453 JUMPI PUSH1 0x40 MLOAD PUSH3 0x461BCD PUSH1 0xE5 SHL DUP2 MSTORE PUSH1 0x4 ADD PUSH2 0x41D SWAP1 PUSH2 0x125A JUMP JUMPDEST PUSH1 0x0 DUP4 PUSH1 0x40 MLOAD PUSH1 0x20 ADD PUSH2 0x466 SWAP2 SWAP1 PUSH2 0x128A JUMP JUMPDEST PUSH1 0x40 MLOAD PUSH1 0x20 DUP2 DUP4 SUB SUB DUP2 MSTORE SWAP1 PUSH1 0x40 MSTORE DUP1 MLOAD SWAP1 PUSH1 0x20 ADD KECCAK256 SWAP1 POP PUSH1 0x0 PUSH2 0x489 DUP6 PUSH2 0x76F JUMP JUMPDEST SWAP1 POP DUP4 DUP2 LT PUSH2 0x668 JUMPI PUSH1 0xF SLOAD PUSH2 0x4A0 SWAP1 PUSH1 0x1 PUSH2 0x12BC JUMP JUMPDEST PUSH1 0xF DUP2 SWAP1 SSTORE PUSH1 0x0 SWAP1 DUP2 MSTORE PUSH1 0x10 PUSH1 0x20 MSTORE PUSH1 0x40 SWAP1 KECCAK256 PUSH2 0x4BD DUP5 DUP3 PUSH2 0x1323 JUMP JUMPDEST POP PUSH1 0xF SLOAD PUSH1 0x40 MLOAD DUP6 SWAP1 DUP5 SWAP1 PUSH32 0x5EBFE9D3E35987A08B09902B37A80285A0F7871EBAB17D24CF01904C336BF993 SWAP1 PUSH1 0x0 SWAP1 LOG4 PUSH1 0x0 PUSH1 0x1 JUMPDEST DUP6 DUP3 LT DUP1 ISZERO PUSH2 0x504 JUMPI POP PUSH1 0xA SLOAD DUP2 GT ISZERO JUMPDEST ISZERO PUSH2 0x665 JUMPI PUSH1 0x0 DUP2 DUP2 MSTORE PUSH1 0xC PUSH1 0x20 MSTORE PUSH1 0x40 SWAP1 KECCAK256 SLOAD ISZERO DUP1 ISZERO SWAP1 PUSH2 0x533 JUMPI POP PUSH1 0x0 DUP2 DUP2 MSTORE PUSH1 0xB PUSH1 0x20 MSTORE PUSH1 0x40 SWAP1 KECCAK256 SLOAD DUP5 EQ JUMPDEST ISZERO PUSH2 0x653 JUMPI PUSH1 0x0 PUSH2 0x544 DUP4 DUP9 PUSH2 0x13E3 JUMP JUMPDEST PUSH1 0x0 DUP4 DUP2 MSTORE PUSH1 0xC PUSH1 0x20 MSTORE PUSH1 0x40 SWAP1 KECCAK256 SLOAD SWAP1 SWAP2 POP DUP2 GT PUSH2 0x5CD JUMPI DUP1 PUSH1 0x6 SLOAD PUSH2 0x56A SWAP2 SWAP1 PUSH2 0x13E3 JUMP JUMPDEST PUSH1 0x6 SSTORE PUSH1 0x40 MLOAD DUP3 SWAP1 DUP3 SWAP1 DUP8 SWAP1 PUSH32 0x12F4285B54EA369A9EBBA8573A153D19BD6E7973C2F6C2021E0551D7B03BAC2C SWAP1 PUSH1 0x0 SWAP1 LOG4 PUSH1 0x0 DUP3 DUP2 MSTORE PUSH1 0xC PUSH1 0x20 MSTORE PUSH1 0x40 SWAP1 KECCAK256 SLOAD PUSH2 0x5B6 SWAP1 DUP3 SWAP1 PUSH2 0x13E3 JUMP JUMPDEST PUSH1 0x0 DUP4 DUP2 MSTORE PUSH1 0xC PUSH1 0x20 MSTORE PUSH1 0x40 SWAP1 KECCAK256 SSTORE DUP7 SWAP3 POP PUSH2 0x651 JUMP JUMPDEST PUSH1 0x0 DUP3 DUP2 MSTORE PUSH1 0xC PUSH1 0x20 MSTORE PUSH1 0x40 SWAP1 KECCAK256 SLOAD PUSH1 0x6 SLOAD PUSH2 0x5E9 SWAP2 SWAP1 PUSH2 0x13E3 JUMP JUMPDEST PUSH1 0x6 SSTORE PUSH1 0x0 DUP3 DUP2 MSTORE PUSH1 0xC PUSH1 0x20 MSTORE PUSH1 0x40 DUP1 DUP3 KECCAK256 SLOAD SWAP1 MLOAD DUP5 SWAP3 DUP9 SWAP2 PUSH32 0x12F4285B54EA369A9EBBA8573A153D19BD6E7973C2F6C2021E0551D7B03BAC2C SWAP2 SWAP1 LOG4 PUSH1 0x0 DUP3 DUP2 MSTORE PUSH1 0xC PUSH1 0x20 MSTORE PUSH1 0x40 SWAP1 KECCAK256 SLOAD PUSH2 0x63F SWAP1 DUP5 PUSH2 0x12BC JUMP JUMPDEST PUSH1 0x0 DUP4 DUP2 MSTORE PUSH1 0xC PUSH1 0x20 MSTORE PUSH1 0x40 DUP2 KECCAK256 SSTORE SWAP3 POP JUMPDEST POP JUMPDEST PUSH2 0x65E DUP2 PUSH1 0x1 PUSH2 0x12BC JUMP JUMPDEST SWAP1 POP PUSH2 0x4F3 JUMP JUMPDEST POP POP JUMPDEST POP POP POP POP POP JUMP JUMPDEST CALLER PUSH1 0x0 SWAP1 DUP2 MSTORE PUSH1 0x1 PUSH1 0x20 MSTORE PUSH1 0x40 SWAP1 KECCAK256 SLOAD PUSH2 0x69B JUMPI PUSH1 0x40 MLOAD PUSH3 0x461BCD PUSH1 0xE5 SHL DUP2 MSTORE PUSH1 0x4 ADD PUSH2 0x41D SWAP1 PUSH2 0x1218 JUMP JUMPDEST CALLER PUSH1 0x0 SWAP1 DUP2 MSTORE PUSH1 0x4 PUSH1 0x20 MSTORE PUSH1 0x40 SWAP1 KECCAK256 SLOAD ISZERO PUSH2 0x6C8 JUMPI PUSH1 0x40 MLOAD PUSH3 0x461BCD PUSH1 0xE5 SHL DUP2 MSTORE PUSH1 0x4 ADD PUSH2 0x41D SWAP1 PUSH2 0x125A JUMP JUMPDEST PUSH1 0x1 PUSH1 0x1 PUSH1 0xA0 SHL SUB DUP2 AND PUSH1 0x0 SWAP1 DUP2 MSTORE PUSH1 0x1 PUSH1 0x20 MSTORE PUSH1 0x40 SWAP1 KECCAK256 SLOAD ISZERO PUSH2 0x725 JUMPI PUSH1 0x40 MLOAD PUSH3 0x461BCD PUSH1 0xE5 SHL DUP2 MSTORE PUSH1 0x20 PUSH1 0x4 DUP3 ADD MSTORE PUSH1 0x14 PUSH1 0x24 DUP3 ADD MSTORE PUSH20 0x27BBB732B91030B63932B0B23C9030B23232B217 PUSH1 0x61 SHL PUSH1 0x44 DUP3 ADD MSTORE PUSH1 0x64 ADD PUSH2 0x41D JUMP JUMPDEST PUSH1 0x2 DUP1 SLOAD PUSH1 0x1 PUSH1 0x1 PUSH1 0xA0 SHL SUB NOT AND PUSH1 0x1 PUSH1 0x1 PUSH1 0xA0 SHL SUB DUP4 AND SWAP1 DUP2 OR SWAP1 SWAP2 SSTORE PUSH1 0x40 MLOAD PUSH32 0xFD3A5E4B503DECB6F2105334E91454F7B0B58D7472B00B512094469EE5FE58F4 SWAP1 PUSH1 0x0 SWAP1 LOG2 POP JUMP JUMPDEST CALLER PUSH1 0x0 SWAP1 DUP2 MSTORE PUSH1 0x1 PUSH1 0x20 MSTORE PUSH1 0x40 DUP2 KECCAK256 SLOAD PUSH2 0x79B JUMPI PUSH1 0x40 MLOAD PUSH3 0x461BCD PUSH1 0xE5 SHL DUP2 MSTORE PUSH1 0x4 ADD PUSH2 0x41D SWAP1 PUSH2 0x1218 JUMP JUMPDEST CALLER PUSH1 0x0 SWAP1 DUP2 MSTORE PUSH1 0x4 PUSH1 0x20 MSTORE PUSH1 0x40 SWAP1 KECCAK256 SLOAD ISZERO PUSH2 0x7C8 JUMPI PUSH1 0x40 MLOAD PUSH3 0x461BCD PUSH1 0xE5 SHL DUP2 MSTORE PUSH1 0x4 ADD PUSH2 0x41D SWAP1 PUSH2 0x125A JUMP JUMPDEST PUSH1 0x0 DUP3 PUSH1 0x40 MLOAD PUSH1 0x20 ADD PUSH2 0x7DB SWAP2 SWAP1 PUSH2 0x128A JUMP JUMPDEST PUSH1 0x40 MLOAD PUSH1 0x20 DUP2 DUP4 SUB SUB DUP2 MSTORE SWAP1 PUSH1 0x40 MSTORE DUP1 MLOAD SWAP1 PUSH1 0x20 ADD KECCAK256 SWAP1 POP PUSH2 0x7FC DUP2 PUSH2 0xE44 JUMP JUMPDEST PUSH1 0x0 DUP2 DUP2 MSTORE PUSH1 0x7 PUSH1 0x20 MSTORE PUSH1 0x40 DUP1 DUP3 KECCAK256 SLOAD SWAP1 MLOAD SWAP1 SWAP2 DUP4 SWAP2 PUSH32 0xC29117027FB5683FD9ADCE4683C07052CA12CCC532277F5B8C3039C6735B7F29 SWAP2 SWAP1 LOG3 PUSH1 0x0 SWAP1 DUP2 MSTORE PUSH1 0x7 PUSH1 0x20 MSTORE PUSH1 0x40 SWAP1 KECCAK256 SLOAD SWAP3 SWAP2 POP POP JUMP JUMPDEST CALLER PUSH1 0x0 SWAP1 DUP2 MSTORE PUSH1 0x1 PUSH1 0x20 MSTORE PUSH1 0x40 SWAP1 KECCAK256 SLOAD PUSH2 0x877 JUMPI PUSH1 0x40 MLOAD PUSH3 0x461BCD PUSH1 0xE5 SHL DUP2 MSTORE PUSH1 0x4 ADD PUSH2 0x41D SWAP1 PUSH2 0x1218 JUMP JUMPDEST CALLER PUSH1 0x0 SWAP1 DUP2 MSTORE PUSH1 0x4 PUSH1 0x20 MSTORE PUSH1 0x40 SWAP1 KECCAK256 SLOAD ISZERO PUSH2 0x8A4 JUMPI PUSH1 0x40 MLOAD PUSH3 0x461BCD PUSH1 0xE5 SHL DUP2 MSTORE PUSH1 0x4 ADD PUSH2 0x41D SWAP1 PUSH2 0x125A JUMP JUMPDEST PUSH1 0x5 SLOAD DUP4 PUSH1 0x6 SLOAD PUSH2 0x8B5 SWAP2 SWAP1 PUSH2 0x12BC JUMP JUMPDEST GT ISZERO PUSH2 0x903 JUMPI PUSH1 0x40 MLOAD PUSH3 0x461BCD PUSH1 0xE5 SHL DUP2 MSTORE PUSH1 0x20 PUSH1 0x4 DUP3 ADD MSTORE PUSH1 0x1E PUSH1 0x24 DUP3 ADD MSTORE PUSH32 0x4D6178696D756D20706F696E7473206C696D69742065786365656465642E0000 PUSH1 0x44 DUP3 ADD MSTORE PUSH1 0x64 ADD PUSH2 0x41D JUMP JUMPDEST TIMESTAMP DUP3 GT PUSH2 0x961 JUMPI PUSH1 0x40 MLOAD PUSH3 0x461BCD PUSH1 0xE5 SHL DUP2 MSTORE PUSH1 0x20 PUSH1 0x4 DUP3 ADD MSTORE PUSH1 0x26 PUSH1 0x24 DUP3 ADD MSTORE PUSH32 0x45787069727920646174652073686F756C64206E6F7420626520696E20746865 PUSH1 0x44 DUP3 ADD MSTORE PUSH6 0x103830B9BA17 PUSH1 0xD1 SHL PUSH1 0x64 DUP3 ADD MSTORE PUSH1 0x84 ADD PUSH2 0x41D JUMP JUMPDEST PUSH1 0x0 DUP5 PUSH1 0x40 MLOAD PUSH1 0x20 ADD PUSH2 0x974 SWAP2 SWAP1 PUSH2 0x128A JUMP JUMPDEST PUSH1 0x40 MLOAD PUSH1 0x20 DUP2 DUP4 SUB SUB DUP2 MSTORE SWAP1 PUSH1 0x40 MSTORE DUP1 MLOAD SWAP1 PUSH1 0x20 ADD KECCAK256 SWAP1 POP PUSH2 0x995 DUP2 PUSH2 0xE44 JUMP JUMPDEST PUSH1 0x0 DUP2 DUP2 MSTORE PUSH1 0x7 PUSH1 0x20 MSTORE PUSH1 0x40 SWAP1 KECCAK256 SLOAD PUSH2 0x9AF SWAP1 DUP6 SWAP1 PUSH2 0x12BC JUMP JUMPDEST PUSH1 0x0 DUP3 DUP2 MSTORE PUSH1 0x7 PUSH1 0x20 MSTORE PUSH1 0x40 SWAP1 KECCAK256 SSTORE PUSH1 0xA SLOAD PUSH2 0x9CC SWAP1 PUSH1 0x1 PUSH2 0x12BC JUMP JUMPDEST PUSH1 0xA DUP2 SWAP1 SSTORE PUSH1 0x0 SWAP1 DUP2 MSTORE PUSH1 0xB PUSH1 0x20 SWAP1 DUP2 MSTORE PUSH1 0x40 DUP1 DUP4 KECCAK256 DUP5 SWAP1 SSTORE DUP4 DUP4 MSTORE PUSH1 0x8 SWAP1 SWAP2 MSTORE SWAP1 KECCAK256 PUSH2 0x9F9 DUP7 DUP3 PUSH2 0x1323 JUMP JUMPDEST POP DUP1 PUSH1 0x9 DUP7 PUSH1 0x40 MLOAD PUSH2 0xA0B SWAP2 SWAP1 PUSH2 0x128A JUMP JUMPDEST SWAP1 DUP2 MSTORE PUSH1 0x40 DUP1 MLOAD PUSH1 0x20 SWAP3 DUP2 SWAP1 SUB DUP4 ADD SWAP1 KECCAK256 SWAP3 SWAP1 SWAP3 SSTORE PUSH1 0xA DUP1 SLOAD PUSH1 0x0 SWAP1 DUP2 MSTORE PUSH1 0xC DUP4 MSTORE DUP4 DUP2 KECCAK256 DUP9 SWAP1 SSTORE DUP2 SLOAD DUP2 MSTORE PUSH1 0xD DUP4 MSTORE DUP4 DUP2 KECCAK256 DUP8 SWAP1 SSTORE SWAP1 SLOAD DUP2 MSTORE PUSH1 0xE SWAP1 SWAP2 MSTORE KECCAK256 PUSH2 0xA55 DUP4 DUP3 PUSH2 0x1323 JUMP JUMPDEST POP DUP4 PUSH1 0x6 SLOAD PUSH2 0xA64 SWAP2 SWAP1 PUSH2 0x12BC JUMP JUMPDEST PUSH1 0x6 SSTORE PUSH1 0xA SLOAD PUSH1 0x40 MLOAD DUP6 SWAP1 DUP4 SWAP1 PUSH32 0x339F6FE8BF902A0DDA530E650C8A3DE3F3E329E9FB61C8035822C2D68ACB04C3 SWAP1 PUSH1 0x0 SWAP1 LOG4 POP POP POP POP POP JUMP JUMPDEST CALLER PUSH1 0x0 SWAP1 DUP2 MSTORE PUSH1 0x1 PUSH1 0x20 MSTORE PUSH1 0x40 SWAP1 KECCAK256 SLOAD PUSH2 0xACA JUMPI PUSH1 0x40 MLOAD PUSH3 0x461BCD PUSH1 0xE5 SHL DUP2 MSTORE PUSH1 0x4 ADD PUSH2 0x41D SWAP1 PUSH2 0x1218 JUMP JUMPDEST CALLER PUSH1 0x0 SWAP1 DUP2 MSTORE PUSH1 0x4 PUSH1 0x20 MSTORE PUSH1 0x40 SWAP1 KECCAK256 SLOAD ISZERO PUSH2 0xAF7 JUMPI PUSH1 0x40 MLOAD PUSH3 0x461BCD PUSH1 0xE5 SHL DUP2 MSTORE PUSH1 0x4 ADD PUSH2 0x41D SWAP1 PUSH2 0x125A JUMP JUMPDEST PUSH1 0x0 DUP3 DUP2 MSTORE PUSH1 0xD PUSH1 0x20 MSTORE PUSH1 0x40 SWAP1 KECCAK256 SLOAD TIMESTAMP LT PUSH2 0xB54 JUMPI PUSH1 0x40 MLOAD PUSH3 0x461BCD PUSH1 0xE5 SHL DUP2 MSTORE PUSH1 0x20 PUSH1 0x4 DUP3 ADD MSTORE PUSH1 0x1B PUSH1 0x24 DUP3 ADD MSTORE PUSH32 0x436F75706F6E2068617320616C726561647920657870697265642E0000000000 PUSH1 0x44 DUP3 ADD MSTORE PUSH1 0x64 ADD PUSH2 0x41D JUMP JUMPDEST PUSH1 0x5 SLOAD PUSH1 0x0 DUP4 DUP2 MSTORE PUSH1 0xC PUSH1 0x20 MSTORE PUSH1 0x40 SWAP1 KECCAK256 SLOAD PUSH1 0x6 SLOAD PUSH2 0xB74 SWAP1 DUP5 SWAP1 PUSH2 0x12BC JUMP JUMPDEST PUSH2 0xB7E SWAP2 SWAP1 PUSH2 0x13E3 JUMP JUMPDEST GT ISZERO PUSH2 0xBD8 JUMPI PUSH1 0x40 MLOAD PUSH3 0x461BCD PUSH1 0xE5 SHL DUP2 MSTORE PUSH1 0x20 PUSH1 0x4 DUP3 ADD MSTORE PUSH1 0x24 DUP1 DUP3 ADD MSTORE PUSH32 0x506F696E7473206C696D697420686173206578636565646564206D6178206C69 PUSH1 0x44 DUP3 ADD MSTORE PUSH4 0x36B4BA17 PUSH1 0xE1 SHL PUSH1 0x64 DUP3 ADD MSTORE PUSH1 0x84 ADD PUSH2 0x41D JUMP JUMPDEST PUSH1 0x0 DUP3 DUP2 MSTORE PUSH1 0xC PUSH1 0x20 MSTORE PUSH1 0x40 SWAP1 KECCAK256 SLOAD PUSH1 0x6 SLOAD PUSH2 0xBF5 SWAP1 DUP4 SWAP1 PUSH2 0x12BC JUMP JUMPDEST PUSH2 0xBFF SWAP2 SWAP1 PUSH2 0x13E3 JUMP JUMPDEST PUSH1 0x6 SSTORE PUSH1 0x0 DUP3 DUP2 MSTORE PUSH1 0xC PUSH1 0x20 SWAP1 DUP2 MSTORE PUSH1 0x40 DUP1 DUP4 KECCAK256 DUP5 SWAP1 SSTORE PUSH1 0xB SWAP1 SWAP2 MSTORE DUP1 DUP3 KECCAK256 SLOAD SWAP1 MLOAD DUP5 SWAP3 DUP5 SWAP3 SWAP2 PUSH32 0x3F89F2657DFEA821783E53BE29FBFAD773DE186E57D2F5620CE98C51A2921B21 SWAP2 SWAP1 LOG4 POP POP JUMP JUMPDEST PUSH1 0x8 PUSH1 0x20 MSTORE PUSH1 0x0 SWAP1 DUP2 MSTORE PUSH1 0x40 SWAP1 KECCAK256 DUP1 SLOAD PUSH2 0x370 SWAP1 PUSH2 0x11DE JUMP JUMPDEST PUSH1 0x2 SLOAD PUSH1 0x1 PUSH1 0x1 PUSH1 0xA0 SHL SUB AND CALLER EQ PUSH2 0xCC1 JUMPI PUSH1 0x40 MLOAD PUSH3 0x461BCD PUSH1 0xE5 SHL DUP2 MSTORE PUSH1 0x20 PUSH1 0x4 DUP3 ADD MSTORE PUSH1 0x19 PUSH1 0x24 DUP3 ADD MSTORE PUSH32 0x596F7520617265206E6F7420746865206E6577206F776E657200000000000000 PUSH1 0x44 DUP3 ADD MSTORE PUSH1 0x64 ADD PUSH2 0x41D JUMP JUMPDEST PUSH1 0x0 SLOAD PUSH2 0xCCF SWAP1 PUSH1 0x1 PUSH2 0x12BC JUMP JUMPDEST PUSH1 0x0 DUP2 DUP2 SSTORE PUSH1 0x2 DUP1 SLOAD PUSH1 0x1 PUSH1 0x1 PUSH1 0xA0 SHL SUB SWAP1 DUP2 AND DUP4 MSTORE PUSH1 0x1 PUSH1 0x20 MSTORE PUSH1 0x40 DUP1 DUP5 KECCAK256 SWAP5 SWAP1 SWAP5 SSTORE SWAP1 SLOAD SWAP3 MLOAD SWAP3 AND SWAP2 PUSH32 0x2E3CDB0A1A6322F9160F5E33C21F317E6F18E77C771778F9BE6D0752F9F988B SWAP2 SWAP1 LOG2 JUMP JUMPDEST CALLER PUSH1 0x0 SWAP1 DUP2 MSTORE PUSH1 0x1 PUSH1 0x20 MSTORE PUSH1 0x40 SWAP1 KECCAK256 SLOAD PUSH2 0xD4C JUMPI PUSH1 0x40 MLOAD PUSH3 0x461BCD PUSH1 0xE5 SHL DUP2 MSTORE PUSH1 0x4 ADD PUSH2 0x41D SWAP1 PUSH2 0x1218 JUMP JUMPDEST CALLER PUSH1 0x0 SWAP1 DUP2 MSTORE PUSH1 0x4 PUSH1 0x20 MSTORE PUSH1 0x40 SWAP1 KECCAK256 SLOAD ISZERO PUSH2 0xD79 JUMPI PUSH1 0x40 MLOAD PUSH3 0x461BCD PUSH1 0xE5 SHL DUP2 MSTORE PUSH1 0x4 ADD PUSH2 0x41D SWAP1 PUSH2 0x125A JUMP JUMPDEST PUSH1 0x1 PUSH1 0x1 PUSH1 0xA0 SHL SUB DUP2 AND CALLER SUB PUSH2 0xDD1 JUMPI PUSH1 0x40 MLOAD PUSH3 0x461BCD PUSH1 0xE5 SHL DUP2 MSTORE PUSH1 0x20 PUSH1 0x4 DUP3 ADD MSTORE PUSH1 0x19 PUSH1 0x24 DUP3 ADD MSTORE PUSH32 0x596F752063616E6E6F7420626C6F636B20796F757273656C6600000000000000 PUSH1 0x44 DUP3 ADD MSTORE PUSH1 0x64 ADD PUSH2 0x41D JUMP JUMPDEST PUSH1 0x3 SLOAD PUSH2 0xDDF SWAP1 PUSH1 0x1 PUSH2 0x12BC JUMP JUMPDEST PUSH1 0x3 DUP2 SWAP1 SSTORE PUSH1 0x1 PUSH1 0x1 PUSH1 0xA0 SHL SUB DUP3 AND PUSH1 0x0 DUP2 DUP2 MSTORE PUSH1 0x4 PUSH1 0x20 MSTORE PUSH1 0x40 DUP1 DUP3 KECCAK256 SWAP4 SWAP1 SWAP4 SSTORE SWAP2 MLOAD SWAP1 SWAP2 PUSH32 0xCC7B1CDE74AA849556F2CA38EE1150DD5BD56FC225130E6C38EB0C2B65305570 SWAP2 LOG2 POP JUMP JUMPDEST PUSH1 0x10 PUSH1 0x20 MSTORE PUSH1 0x0 SWAP1 DUP2 MSTORE PUSH1 0x40 SWAP1 KECCAK256 DUP1 SLOAD PUSH2 0x370 SWAP1 PUSH2 0x11DE JUMP JUMPDEST PUSH1 0x0 PUSH1 0x1 JUMPDEST PUSH1 0xA SLOAD DUP2 GT PUSH2 0xF39 JUMPI PUSH1 0x0 DUP2 DUP2 MSTORE PUSH1 0xC PUSH1 0x20 MSTORE PUSH1 0x40 SWAP1 KECCAK256 SLOAD ISZERO PUSH2 0xF27 JUMPI PUSH1 0x0 DUP2 DUP2 MSTORE PUSH1 0xD PUSH1 0x20 MSTORE PUSH1 0x40 SWAP1 KECCAK256 SLOAD TIMESTAMP LT PUSH2 0xEF5 JUMPI PUSH1 0x0 DUP2 DUP2 MSTORE PUSH1 0xC PUSH1 0x20 MSTORE PUSH1 0x40 SWAP1 KECCAK256 SLOAD PUSH1 0x6 SLOAD PUSH2 0xE97 SWAP2 SWAP1 PUSH2 0x13E3 JUMP JUMPDEST PUSH1 0x6 SSTORE PUSH1 0x0 DUP2 DUP2 MSTORE PUSH1 0xB PUSH1 0x20 SWAP1 DUP2 MSTORE PUSH1 0x40 DUP1 DUP4 KECCAK256 SLOAD PUSH1 0xC SWAP1 SWAP3 MSTORE DUP1 DUP4 KECCAK256 SLOAD SWAP1 MLOAD SWAP2 SWAP3 DUP5 SWAP3 DUP5 SWAP2 PUSH32 0xC25C39153635E38307A1EA5F18FB182AEBB0037838D19EDE4D6EDDD0AD18822B SWAP2 LOG4 POP PUSH1 0x0 DUP2 DUP2 MSTORE PUSH1 0xC PUSH1 0x20 MSTORE PUSH1 0x40 DUP2 KECCAK256 SSTORE PUSH2 0xF27 JUMP JUMPDEST PUSH1 0x0 DUP2 DUP2 MSTORE PUSH1 0xB PUSH1 0x20 MSTORE PUSH1 0x40 SWAP1 KECCAK256 SLOAD DUP4 SWAP1 SUB PUSH2 0xF27 JUMPI PUSH1 0x0 DUP2 DUP2 MSTORE PUSH1 0xC PUSH1 0x20 MSTORE PUSH1 0x40 SWAP1 KECCAK256 SLOAD PUSH2 0xF24 SWAP1 DUP4 PUSH2 0x12BC JUMP JUMPDEST SWAP2 POP JUMPDEST DUP1 PUSH2 0xF31 DUP2 PUSH2 0x13FA JUMP JUMPDEST SWAP2 POP POP PUSH2 0xE49 JUMP JUMPDEST POP PUSH1 0x0 SWAP2 DUP3 MSTORE PUSH1 0x7 PUSH1 0x20 MSTORE PUSH1 0x40 SWAP1 SWAP2 KECCAK256 SSTORE JUMP JUMPDEST PUSH1 0x0 PUSH1 0x20 DUP3 DUP5 SUB SLT ISZERO PUSH2 0xF5E JUMPI PUSH1 0x0 DUP1 REVERT JUMPDEST POP CALLDATALOAD SWAP2 SWAP1 POP JUMP JUMPDEST PUSH1 0x0 JUMPDEST DUP4 DUP2 LT ISZERO PUSH2 0xF80 JUMPI DUP2 DUP2 ADD MLOAD DUP4 DUP3 ADD MSTORE PUSH1 0x20 ADD PUSH2 0xF68 JUMP JUMPDEST DUP4 DUP2 GT ISZERO PUSH2 0xF8F JUMPI PUSH1 0x0 DUP5 DUP5 ADD MSTORE JUMPDEST POP POP POP POP JUMP JUMPDEST PUSH1 0x20 DUP2 MSTORE PUSH1 0x0 DUP3 MLOAD DUP1 PUSH1 0x20 DUP5 ADD MSTORE PUSH2 0xFB4 DUP2 PUSH1 0x40 DUP6 ADD PUSH1 0x20 DUP8 ADD PUSH2 0xF65 JUMP JUMPDEST PUSH1 0x1F ADD PUSH1 0x1F NOT AND SWAP2 SWAP1 SWAP2 ADD PUSH1 0x40 ADD SWAP3 SWAP2 POP POP JUMP JUMPDEST PUSH4 0x4E487B71 PUSH1 0xE0 SHL PUSH1 0x0 MSTORE PUSH1 0x41 PUSH1 0x4 MSTORE PUSH1 0x24 PUSH1 0x0 REVERT JUMPDEST PUSH1 0x0 DUP3 PUSH1 0x1F DUP4 ADD SLT PUSH2 0xFEF JUMPI PUSH1 0x0 DUP1 REVERT JUMPDEST DUP2 CALLDATALOAD PUSH8 0xFFFFFFFFFFFFFFFF DUP1 DUP3 GT ISZERO PUSH2 0x100A JUMPI PUSH2 0x100A PUSH2 0xFC8 JUMP JUMPDEST PUSH1 0x40 MLOAD PUSH1 0x1F DUP4 ADD PUSH1 0x1F NOT SWAP1 DUP2 AND PUSH1 0x3F ADD AND DUP2 ADD SWAP1 DUP3 DUP3 GT DUP2 DUP4 LT OR ISZERO PUSH2 0x1032 JUMPI PUSH2 0x1032 PUSH2 0xFC8 JUMP JUMPDEST DUP2 PUSH1 0x40 MSTORE DUP4 DUP2 MSTORE DUP7 PUSH1 0x20 DUP6 DUP9 ADD ADD GT ISZERO PUSH2 0x104B JUMPI PUSH1 0x0 DUP1 REVERT JUMPDEST DUP4 PUSH1 0x20 DUP8 ADD PUSH1 0x20 DUP4 ADD CALLDATACOPY PUSH1 0x0 PUSH1 0x20 DUP6 DUP4 ADD ADD MSTORE DUP1 SWAP5 POP POP POP POP POP SWAP3 SWAP2 POP POP JUMP JUMPDEST PUSH1 0x0 DUP1 PUSH1 0x0 PUSH1 0x60 DUP5 DUP7 SUB SLT ISZERO PUSH2 0x1080 JUMPI PUSH1 0x0 DUP1 REVERT JUMPDEST DUP4 CALLDATALOAD PUSH8 0xFFFFFFFFFFFFFFFF DUP1 DUP3 GT ISZERO PUSH2 0x1098 JUMPI PUSH1 0x0 DUP1 REVERT JUMPDEST PUSH2 0x10A4 DUP8 DUP4 DUP9 ADD PUSH2 0xFDE JUMP JUMPDEST SWAP5 POP PUSH1 0x20 DUP7 ADD CALLDATALOAD SWAP4 POP PUSH1 0x40 DUP7 ADD CALLDATALOAD SWAP2 POP DUP1 DUP3 GT ISZERO PUSH2 0x10C1 JUMPI PUSH1 0x0 DUP1 REVERT JUMPDEST POP PUSH2 0x10CE DUP7 DUP3 DUP8 ADD PUSH2 0xFDE JUMP JUMPDEST SWAP2 POP POP SWAP3 POP SWAP3 POP SWAP3 JUMP JUMPDEST PUSH1 0x0 PUSH1 0x20 DUP3 DUP5 SUB SLT ISZERO PUSH2 0x10EA JUMPI PUSH1 0x0 DUP1 REVERT JUMPDEST DUP2 CALLDATALOAD PUSH1 0x1 PUSH1 0x1 PUSH1 0xA0 SHL SUB DUP2 AND DUP2 EQ PUSH2 0x1101 JUMPI PUSH1 0x0 DUP1 REVERT JUMPDEST SWAP4 SWAP3 POP POP POP JUMP JUMPDEST PUSH1 0x0 PUSH1 0x20 DUP3 DUP5 SUB SLT ISZERO PUSH2 0x111A JUMPI PUSH1 0x0 DUP1 REVERT JUMPDEST DUP2 CALLDATALOAD PUSH8 0xFFFFFFFFFFFFFFFF DUP2 GT ISZERO PUSH2 0x1131 JUMPI PUSH1 0x0 DUP1 REVERT JUMPDEST PUSH2 0x113D DUP5 DUP3 DUP6 ADD PUSH2 0xFDE JUMP JUMPDEST SWAP5 SWAP4 POP POP POP POP JUMP JUMPDEST PUSH1 0x0 DUP1 PUSH1 0x0 DUP1 PUSH1 0x80 DUP6 DUP8 SUB SLT ISZERO PUSH2 0x115B JUMPI PUSH1 0x0 DUP1 REVERT JUMPDEST DUP5 CALLDATALOAD PUSH8 0xFFFFFFFFFFFFFFFF DUP1 DUP3 GT ISZERO PUSH2 0x1173 JUMPI PUSH1 0x0 DUP1 REVERT JUMPDEST PUSH2 0x117F DUP9 DUP4 DUP10 ADD PUSH2 0xFDE JUMP JUMPDEST SWAP6 POP PUSH1 0x20 DUP8 ADD CALLDATALOAD SWAP5 POP PUSH1 0x40 DUP8 ADD CALLDATALOAD SWAP4 POP PUSH1 0x60 DUP8 ADD CALLDATALOAD SWAP2 POP DUP1 DUP3 GT ISZERO PUSH2 0x11A3 JUMPI PUSH1 0x0 DUP1 REVERT JUMPDEST POP PUSH2 0x11B0 DUP8 DUP3 DUP9 ADD PUSH2 0xFDE JUMP JUMPDEST SWAP2 POP POP SWAP3 SWAP6 SWAP2 SWAP5 POP SWAP3 POP JUMP JUMPDEST PUSH1 0x0 DUP1 PUSH1 0x40 DUP4 DUP6 SUB SLT ISZERO PUSH2 0x11CF JUMPI PUSH1 0x0 DUP1 REVERT JUMPDEST POP POP DUP1 CALLDATALOAD SWAP3 PUSH1 0x20 SWAP1 SWAP2 ADD CALLDATALOAD SWAP2 POP JUMP JUMPDEST PUSH1 0x1 DUP2 DUP2 SHR SWAP1 DUP3 AND DUP1 PUSH2 0x11F2 JUMPI PUSH1 0x7F DUP3 AND SWAP2 POP JUMPDEST PUSH1 0x20 DUP3 LT DUP2 SUB PUSH2 0x1212 JUMPI PUSH4 0x4E487B71 PUSH1 0xE0 SHL PUSH1 0x0 MSTORE PUSH1 0x22 PUSH1 0x4 MSTORE PUSH1 0x24 PUSH1 0x0 REVERT JUMPDEST POP SWAP2 SWAP1 POP JUMP JUMPDEST PUSH1 0x20 DUP1 DUP3 MSTORE PUSH1 0x22 SWAP1 DUP3 ADD MSTORE PUSH32 0x4F6E6C79206F776E65722063616E2063616C6C20746869732066756E6374696F PUSH1 0x40 DUP3 ADD MSTORE PUSH2 0x3717 PUSH1 0xF1 SHL PUSH1 0x60 DUP3 ADD MSTORE PUSH1 0x80 ADD SWAP1 JUMP JUMPDEST PUSH1 0x20 DUP1 DUP3 MSTORE PUSH1 0x16 SWAP1 DUP3 ADD MSTORE PUSH22 0x2CB7BA903430BB32903132B2B710313637B1B5B2B217 PUSH1 0x51 SHL PUSH1 0x40 DUP3 ADD MSTORE PUSH1 0x60 ADD SWAP1 JUMP JUMPDEST PUSH1 0x0 DUP3 MLOAD PUSH2 0x129C DUP2 DUP5 PUSH1 0x20 DUP8 ADD PUSH2 0xF65 JUMP JUMPDEST SWAP2 SWAP1 SWAP2 ADD SWAP3 SWAP2 POP POP JUMP JUMPDEST PUSH4 0x4E487B71 PUSH1 0xE0 SHL PUSH1 0x0 MSTORE PUSH1 0x11 PUSH1 0x4 MSTORE PUSH1 0x24 PUSH1 0x0 REVERT JUMPDEST PUSH1 0x0 DUP3 NOT DUP3 GT ISZERO PUSH2 0x12CF JUMPI PUSH2 0x12CF PUSH2 0x12A6 JUMP JUMPDEST POP ADD SWAP1 JUMP JUMPDEST PUSH1 0x1F DUP3 GT ISZERO PUSH2 0x131E JUMPI PUSH1 0x0 DUP2 DUP2 MSTORE PUSH1 0x20 DUP2 KECCAK256 PUSH1 0x1F DUP6 ADD PUSH1 0x5 SHR DUP2 ADD PUSH1 0x20 DUP7 LT ISZERO PUSH2 0x12FB JUMPI POP DUP1 JUMPDEST PUSH1 0x1F DUP6 ADD PUSH1 0x5 SHR DUP3 ADD SWAP2 POP JUMPDEST DUP2 DUP2 LT ISZERO PUSH2 0x131A JUMPI DUP3 DUP2 SSTORE PUSH1 0x1 ADD PUSH2 0x1307 JUMP JUMPDEST POP POP POP JUMPDEST POP POP POP JUMP JUMPDEST DUP2 MLOAD PUSH8 0xFFFFFFFFFFFFFFFF DUP2 GT ISZERO PUSH2 0x133D JUMPI PUSH2 0x133D PUSH2 0xFC8 JUMP JUMPDEST PUSH2 0x1351 DUP2 PUSH2 0x134B DUP5 SLOAD PUSH2 0x11DE JUMP JUMPDEST DUP5 PUSH2 0x12D4 JUMP JUMPDEST PUSH1 0x20 DUP1 PUSH1 0x1F DUP4 GT PUSH1 0x1 DUP2 EQ PUSH2 0x1386 JUMPI PUSH1 0x0 DUP5 ISZERO PUSH2 0x136E JUMPI POP DUP6 DUP4 ADD MLOAD JUMPDEST PUSH1 0x0 NOT PUSH1 0x3 DUP7 SWAP1 SHL SHR NOT AND PUSH1 0x1 DUP6 SWAP1 SHL OR DUP6 SSTORE PUSH2 0x131A JUMP JUMPDEST PUSH1 0x0 DUP6 DUP2 MSTORE PUSH1 0x20 DUP2 KECCAK256 PUSH1 0x1F NOT DUP7 AND SWAP2 JUMPDEST DUP3 DUP2 LT ISZERO PUSH2 0x13B5 JUMPI DUP9 DUP7 ADD MLOAD DUP3 SSTORE SWAP5 DUP5 ADD SWAP5 PUSH1 0x1 SWAP1 SWAP2 ADD SWAP1 DUP5 ADD PUSH2 0x1396 JUMP JUMPDEST POP DUP6 DUP3 LT ISZERO PUSH2 0x13D3 JUMPI DUP8 DUP6 ADD MLOAD PUSH1 0x0 NOT PUSH1 0x3 DUP9 SWAP1 SHL PUSH1 0xF8 AND SHR NOT AND DUP2 SSTORE JUMPDEST POP POP POP POP POP PUSH1 0x1 SWAP1 DUP2 SHL ADD SWAP1 SSTORE POP JUMP JUMPDEST PUSH1 0x0 DUP3 DUP3 LT ISZERO PUSH2 0x13F5 JUMPI PUSH2 0x13F5 PUSH2 0x12A6 JUMP JUMPDEST POP SUB SWAP1 JUMP JUMPDEST PUSH1 0x0 PUSH1 0x1 DUP3 ADD PUSH2 0x140C JUMPI PUSH2 0x140C PUSH2 0x12A6 JUMP JUMPDEST POP PUSH1 0x1 ADD SWAP1 JUMP INVALID LOG2 PUSH5 0x6970667358 0x22 SLT KECCAK256 INVALID PUSH9 0xD62F4B4FB7D176B38E PUSH26 0xCA9A750E35C9F7EA0E3E251EA9362843C3F5621764736F6C6343 STOP ADDMOD 0xF STOP CALLER ",
  "sha1": "a435be0df41728371c6737f591a1acd35c96f82a",
  "source": "// SPDX-License-Identifier: MIT\n\npragma solidity 0.8.15;\n\n\ncontract Loyalty3 {\n\n    //owner data\n    uint256 public ownerCount;\n    mapping(address => uint256) public ownerToOwnerId;\n    address public newOwnerPending;\n    uint256 public blockedOwnerCount;\n    mapping(address => uint256) public blockedOwnerToOwnerId;\n\n    // points data\n    uint256 public maxSupply; // Maximum number of points that can be minted.\n    uint256 public totalSupply; // Total points in circulation at the time of enquiry.\n\n   //user data\n   mapping(bytes32 => uint256) userIdToPoints;\n   mapping(bytes32 => string) public userIdToString;\n   mapping(string => bytes32) public userStringToId;\n\n   //coupon data\n   uint256 public couponCount = 0;\n   mapping(uint256 => bytes32) public couponIdToUserId;\n   mapping(uint256 => uint256) public couponIdToPoints;\n   mapping(uint256 => uint256) public couponIdToExpiry;\n   mapping(uint256 => string) public couponIdToRefVia;\n\n   //redeem data\n   uint256 public redeemCount = 0;\n   mapping(uint256 => string) public redeemIdToRefId;\n\n   //events\n   event pointsAllocated(bytes32 indexed _userId, uint256 indexed _points, uint256 indexed _couponId);\n   event pointsExpired(bytes32 indexed _userId, uint256 indexed _points, uint256 indexed _couponId);\n   event pointsRedeemed(bytes32 indexed _userId, uint256 indexed _points, uint256 indexed _couponId);\n   event pointsRedeemedDetails(bytes32 indexed _userId, uint256 indexed _points, uint256 indexed _redeemId);\n   event userPoints (bytes32 indexed _userId, uint256 indexed _points);\n   event ownerSet (address indexed _newOwner);\n   event ownerPrompt (address indexed _newOwner);\n   event ownerBlocked (address indexed _blockedOwner);\n   event couponModified (bytes32 indexed _userId, uint256 indexed _points, uint256 indexed _couponId);\n\n   //owner functions\n\n   // Set the max supply of the points during contract creation.\n    constructor (uint256 _maxSupply) {\n        maxSupply = _maxSupply;\n        blockedOwnerCount = 0;\n        ownerCount = 1;\n        ownerToOwnerId[msg.sender] = ownerCount;\n    }\n    \n    //Modifier to check if caller is the owner of this contract. Used on most state change functions.\n    modifier onlyOwner () {\n        require (ownerToOwnerId[msg.sender] > 0, \"Only owner can call this function.\");\n        require (blockedOwnerToOwnerId[msg.sender] == 0, \"You have been blocked.\");\n        _;\n    }\n\n    // This function adds a user to the list owners of the contract. Only an existing owner can add a new owner. The new owner has to confirm by calling the confirmOwner function.\n    function setOwner(address _newOwner) external onlyOwner {\n        require(ownerToOwnerId[_newOwner] == 0, \"Owner already added.\");\n        newOwnerPending = _newOwner;\n        emit ownerPrompt(_newOwner);\n    }\n\n    // This function is used by the new owner added to the owners list. The new owner calls this function to confirm the ownership.\n    function confirmOwner() external {      \n        require(msg.sender == newOwnerPending, \"You are not the new owner\");\n        ownerCount = ownerCount + 1;\n        ownerToOwnerId[newOwnerPending] = ownerCount;        \n        emit ownerSet(newOwnerPending);\n    }\n\n    // This function blocks a certain user/address to access the contract. The user to be blocked is added to the blocked user's list.\n    function blockOwner(address _owner) external onlyOwner {\n        require(msg.sender != _owner, \"You cannot block yourself\");\n        blockedOwnerCount = blockedOwnerCount + 1;\n        blockedOwnerToOwnerId[_owner] = blockedOwnerCount;\n        emit ownerBlocked(_owner);\n    }\n\n    // earn points\n    //The function creates a new coupon and assigns the input data to the coupon.\n    function allocatePoints(string memory _userIdString, uint256 _points, uint256 _expiryDate, string memory _refVia) external onlyOwner {\n       require (totalSupply + _points <= maxSupply, \"Maximum points limit exceeded.\");\n       require(_expiryDate > block.timestamp, \"Expiry date should not be in the past.\");\n       bytes32 _userId = keccak256(abi.encodePacked(_userIdString));\n       updateUserPoints(_userId);\n       userIdToPoints[_userId] = userIdToPoints[_userId] + _points;\n       couponCount = couponCount + 1;\n       couponIdToUserId[couponCount] = _userId;\n       userIdToString[_userId] = _userIdString;\n       userStringToId[_userIdString] = _userId;\n       couponIdToPoints[couponCount] = _points;\n       couponIdToExpiry[couponCount] = _expiryDate;\n       couponIdToRefVia[couponCount] = _refVia;\n       totalSupply = totalSupply + _points;\n       emit pointsAllocated(_userId, _points, couponCount);\n    } \n\n\n    // Internal functions   \n    // Goes through all coupon Ids. Checks for the expired coupons and burns the points of the expired coupons. Filters the coupons with the user ID. Adds up all the points of a user's coupons and updates the 'userIdToPoints' mapping.\n    function updateUserPoints(bytes32 _userId) private {\n       uint256 points = 0;\n       for (uint256 couponId = 1; couponId <= couponCount; couponId++) {\n           if (couponIdToPoints[couponId] > 0) {\n               if (couponIdToExpiry[couponId] <= block.timestamp) {\n                   totalSupply = totalSupply - couponIdToPoints[couponId];\n                   bytes32 thisUserId = couponIdToUserId[couponId];\n                   emit pointsExpired(thisUserId, couponIdToPoints[couponId], couponId);\n                   couponIdToPoints[couponId] = 0;\n               } else {\n                   if (couponIdToUserId[couponId] == _userId) {\n                   points = points + couponIdToPoints[couponId];\n                    }\n               }               \n           }\n        }\n        userIdToPoints[_userId] = points;\n    }\n\n    //gets points available to a user. calls the 'updateUserPoints' function first to check for expired coupons. returns the 'userIdToPoints' mapping.\n    function getUserPoints (string memory _userIdString) public onlyOwner returns(uint256) {\n        bytes32 _userId = keccak256(abi.encodePacked(_userIdString));\n        updateUserPoints(_userId);\n        emit userPoints(_userId, userIdToPoints[_userId]);   \n        return userIdToPoints[_userId];\n    }\n\n    //redeemUserPoints\n    // The function will check the current points the user has. Goes through all the coupons ids in increasing order. Filters the coupons with user Id and availability of points. Subtracts points from coupon Ids untill the desired number of points have been extracted.\n    function redeemUserPoints (string memory _userIdString, uint256 _points, string memory _refId) external onlyOwner {\n        bytes32 _userId = keccak256(abi.encodePacked(_userIdString));\n        uint256 availablePoints = getUserPoints(_userIdString);\n        if (availablePoints >= _points) {\n            redeemCount = redeemCount + 1;\n            redeemIdToRefId[redeemCount] = _refId;\n            emit pointsRedeemedDetails(_userId, _points, redeemCount);\n            uint256 redeemedpoints = 0;\n            uint256 couponId = 1;\n            while (redeemedpoints < _points && couponId <= couponCount) {\n                if (couponIdToPoints[couponId] > 0 && couponIdToUserId[couponId] == _userId) {\n                    uint256 pointsToBeRedeemed = _points - redeemedpoints;\n                    if (couponIdToPoints[couponId] >= pointsToBeRedeemed ) {\n                        totalSupply = totalSupply - pointsToBeRedeemed;\n                        emit pointsRedeemed(_userId, pointsToBeRedeemed, couponId);\n                        \n                        couponIdToPoints[couponId] = couponIdToPoints[couponId] - pointsToBeRedeemed;\n                        redeemedpoints = _points;\n                    } else {                    \n                        totalSupply = totalSupply - couponIdToPoints[couponId];\n                        emit pointsRedeemed(_userId, couponIdToPoints[couponId], couponId);                        \n                        redeemedpoints = redeemedpoints + couponIdToPoints[couponId];\n                        couponIdToPoints[couponId] = 0;                    \n                    }\n                }\n                couponId = couponId + 1;\n            }        \n        }\n        \n    }\n\n    // Modify the number of points in a coupon. Checks the coupon for expiry first. Then replaces the coupon points with new points.\n    function modifyCouponPoints (uint256 _couponId, uint256 _points ) external onlyOwner {\n        require (couponIdToExpiry[_couponId] > block.timestamp, \"Coupon has already expired.\");\n        require (totalSupply + _points - couponIdToPoints[_couponId] <= maxSupply, \"Points limit has exceeded max limit.\");\n        totalSupply = totalSupply + _points - couponIdToPoints[_couponId];\n        couponIdToPoints[_couponId] = _points;\n        emit couponModified(couponIdToUserId[_couponId], couponIdToPoints[_couponId], _couponId);        \n    }\n}",
  "sourcePath": "contracts/loyalty3.sol",
  "type": "contract"
}