{"abi":[{"inputs":[{"internalType":"uint256","name":"_maxSupply","type":"uint256"}],"stateMutability":"nonpayable","type":"constructor"},{"anonymous":false,"inputs":[{"indexed":true,"internalType":"bytes32","name":"_userId","type":"bytes32"},{"indexed":true,"internalType":"uint256","name":"_points","type":"uint256"},{"indexed":true,"internalType":"uint256","name":"_couponId","type":"uint256"}],"name":"couponModified","type":"event"},{"anonymous":false,"inputs":[{"indexed":true,"internalType":"address","name":"_newOwner","type":"address"}],"name":"ownerSet","type":"event"},{"anonymous":false,"inputs":[{"indexed":true,"internalType":"bytes32","name":"_userId","type":"bytes32"},{"indexed":true,"internalType":"uint256","name":"_points","type":"uint256"},{"indexed":true,"internalType":"uint256","name":"_couponId","type":"uint256"}],"name":"pointsAllocated","type":"event"},{"anonymous":false,"inputs":[{"indexed":true,"internalType":"bytes32","name":"_userId","type":"bytes32"},{"indexed":true,"internalType":"uint256","name":"_points","type":"uint256"},{"indexed":true,"internalType":"uint256","name":"_couponId","type":"uint256"}],"name":"pointsExpired","type":"event"},{"anonymous":false,"inputs":[{"indexed":true,"internalType":"bytes32","name":"_userId","type":"bytes32"},{"indexed":true,"internalType":"uint256","name":"_points","type":"uint256"},{"indexed":true,"internalType":"uint256","name":"_couponId","type":"uint256"}],"name":"pointsRedeemed","type":"event"},{"anonymous":false,"inputs":[{"indexed":true,"internalType":"bytes32","name":"_userId","type":"bytes32"},{"indexed":true,"internalType":"uint256","name":"_points","type":"uint256"}],"name":"userPoints","type":"event"},{"inputs":[{"internalType":"string","name":"_userIdString","type":"string"},{"internalType":"uint256","name":"_points","type":"uint256"},{"internalType":"uint256","name":"_expiryDate","type":"uint256"},{"internalType":"string","name":"_refVia","type":"string"}],"name":"allocatePoints","outputs":[],"stateMutability":"nonpayable","type":"function"},{"inputs":[],"name":"couponCount","outputs":[{"internalType":"uint256","name":"","type":"uint256"}],"stateMutability":"view","type":"function"},{"inputs":[{"internalType":"uint256","name":"","type":"uint256"}],"name":"couponIdToExpiry","outputs":[{"internalType":"uint256","name":"","type":"uint256"}],"stateMutability":"view","type":"function"},{"inputs":[{"internalType":"uint256","name":"","type":"uint256"}],"name":"couponIdToPoints","outputs":[{"internalType":"uint256","name":"","type":"uint256"}],"stateMutability":"view","type":"function"},{"inputs":[{"internalType":"uint256","name":"","type":"uint256"}],"name":"couponIdToRefVia","outputs":[{"internalType":"string","name":"","type":"string"}],"stateMutability":"view","type":"function"},{"inputs":[{"internalType":"uint256","name":"","type":"uint256"}],"name":"couponIdToUserId","outputs":[{"internalType":"bytes32","name":"","type":"bytes32"}],"stateMutability":"view","type":"function"},{"inputs":[{"internalType":"string","name":"_userIdString","type":"string"}],"name":"getUserPoints","outputs":[{"internalType":"uint256","name":"","type":"uint256"}],"stateMutability":"nonpayable","type":"function"},{"inputs":[],"name":"maxSupply","outputs":[{"internalType":"uint256","name":"","type":"uint256"}],"stateMutability":"view","type":"function"},{"inputs":[{"internalType":"uint256","name":"_couponId","type":"uint256"},{"internalType":"uint256","name":"_points","type":"uint256"}],"name":"modifyCouponPoints","outputs":[],"stateMutability":"nonpayable","type":"function"},{"inputs":[],"name":"owner","outputs":[{"internalType":"address","name":"","type":"address"}],"stateMutability":"view","type":"function"},{"inputs":[{"internalType":"string","name":"_userIdString","type":"string"},{"internalType":"uint256","name":"_points","type":"uint256"}],"name":"redeemUserPoints","outputs":[],"stateMutability":"nonpayable","type":"function"},{"inputs":[{"internalType":"address","name":"_newOwner","type":"address"}],"name":"setOwner","outputs":[],"stateMutability":"nonpayable","type":"function"},{"inputs":[],"name":"totalSupply","outputs":[{"internalType":"uint256","name":"","type":"uint256"}],"stateMutability":"view","type":"function"},{"inputs":[{"internalType":"bytes32","name":"","type":"bytes32"}],"name":"userIdToString","outputs":[{"internalType":"string","name":"","type":"string"}],"stateMutability":"view","type":"function"},{"inputs":[{"internalType":"string","name":"","type":"string"}],"name":"userStringToId","outputs":[{"internalType":"bytes32","name":"","type":"bytes32"}],"stateMutability":"view","type":"function"}],"bytecode":"6080604052600060065534801561001557600080fd5b50604051610fe3380380610fe38339810160408190526100349161004e565b600155600080546001600160a01b03191633179055610067565b60006020828403121561006057600080fd5b5051919050565b610f6d806100766000396000f3fe608060405234801561001057600080fd5b50600436106100f55760003560e01c806388be6c59116100975780639dca2789116100665780639dca278914610231578063d0e2392314610244578063d5abeb011461024d578063eb8b4c111461025657600080fd5b806388be6c59146101cd5780638da5cb5b146101e057806396749e411461020b5780639bb034fa1461021e57600080fd5b8063172659b3116100d3578063172659b31461016657806318160ddd1461018657806349b3b4d91461018f57806360987984146101ba57600080fd5b8063096ff3bb146100fa5780630e5f87931461012357806313af403514610151575b600080fd5b61010d610108366004610bd4565b610276565b60405161011a9190610c1d565b60405180910390f35b610143610131366004610bd4565b60096020526000908152604090205481565b60405190815260200161011a565b61016461015f366004610c50565b610310565b005b610143610174366004610bd4565b60086020526000908152604090205481565b61014360025481565b61014361019d366004610d23565b805160208183018101805160058252928201919093012091525481565b6101436101c8366004610d23565b61038b565b6101646101db366004610d60565b610439565b6000546101f3906001600160a01b031681565b6040516001600160a01b03909116815260200161011a565b610164610219366004610dd7565b610667565b61016461022c366004610df9565b6107e8565b61010d61023f366004610bd4565b610a27565b61014360065481565b61014360015481565b610143610264366004610bd4565b60076020526000908152604090205481565b600a602052600090815260409020805461028f90610e3e565b80601f01602080910402602001604051908101604052809291908181526020018280546102bb90610e3e565b80156103085780601f106102dd57610100808354040283529160200191610308565b820191906000526020600020905b8154815290600101906020018083116102eb57829003601f168201915b505050505081565b6000546001600160a01b031633146103435760405162461bcd60e51b815260040161033a90610e79565b60405180910390fd5b600080546001600160a01b0319166001600160a01b038316908117825560405190917f02e3cdb0a1a6322f9160f5e33c21f317e6f18e77c771778f9be6d0752f9f988b91a250565b600080546001600160a01b031633146103b65760405162461bcd60e51b815260040161033a90610e79565b6000826040516020016103c99190610ebb565b6040516020818303038152906040528051906020012090506103ea81610a40565b600081815260036020526040808220549051909183917fc29117027fb5683fd9adce4683c07052ca12ccc532277f5b8c3039c6735b7f299190a360009081526003602052604090205492915050565b6000546001600160a01b031633146104635760405162461bcd60e51b815260040161033a90610e79565b600154836002546104749190610eed565b11156104c25760405162461bcd60e51b815260206004820152601e60248201527f4d6178696d756d20706f696e7473206c696d69742065786365656465642e0000604482015260640161033a565b4282116105205760405162461bcd60e51b815260206004820152602660248201527f45787069727920646174652073686f756c64206e6f7420626520696e20746865604482015265103830b9ba1760d11b606482015260840161033a565b6000846040516020016105339190610ebb565b60405160208183030381529060405280519060200120905061055481610a40565b60008181526003602052604090205461056e908590610eed565b60008281526003602052604090205560065461058b906001610eed565b600681905560009081526007602090815260408083208490558383526004825290912086516105bc92880190610b3b565b50806005866040516105ce9190610ebb565b90815260408051602092819003830190209290925560068054600090815260088352838120889055815481526009835283812087905590548152600a825291909120835161061e92850190610b3b565b508360025461062d9190610eed565b600255600654604051859083907f339f6fe8bf902a0dda530e650c8a3de3f3e329e9fb61c8035822c2d68acb04c390600090a45050505050565b6000546001600160a01b031633146106915760405162461bcd60e51b815260040161033a90610e79565b60008281526009602052604090205442106106ee5760405162461bcd60e51b815260206004820152601b60248201527f436f75706f6e2068617320616c726561647920657870697265642e0000000000604482015260640161033a565b60015460008381526008602052604090205460025461070e908490610eed565b6107189190610f05565b11156107725760405162461bcd60e51b8152602060048201526024808201527f506f696e7473206c696d697420686173206578636565646564206d6178206c6960448201526336b4ba1760e11b606482015260840161033a565b60008281526008602052604090205460025461078f908390610eed565b6107999190610f05565b6002556000828152600860209081526040808320849055600790915280822054905184928492917f3f89f2657dfea821783e53be29fbfad773de186e57d2f5620ce98c51a2921b219190a45050565b6000546001600160a01b031633146108125760405162461bcd60e51b815260040161033a90610e79565b6000826040516020016108259190610ebb565b604051602081830303815290604052805190602001209050816108478461038b565b10156108a95760405162461bcd60e51b815260206004820152602b60248201527f5573657220646f6573206e6f74206861766520656e6f75676820706f696e747360448201526a103a37903932b232b2b69760a91b606482015260840161033a565b600060015b83821080156108bf57506006548111155b15610a2057600081815260086020526040902054158015906108ee575060008181526007602052604090205483145b15610a0e5760006108ff8386610f05565b600083815260086020526040902054909150811161098857806002546109259190610f05565b6002556040518290829086907f12f4285b54ea369a9ebba8573a153d19bd6e7973c2f6c2021e0551d7b03bac2c90600090a4600082815260086020526040902054610971908290610f05565b600083815260086020526040902055849250610a0c565b6000828152600860205260409020546002546109a49190610f05565b600255600082815260086020526040808220549051849287917f12f4285b54ea369a9ebba8573a153d19bd6e7973c2f6c2021e0551d7b03bac2c9190a46000828152600860205260409020546109fa9084610eed565b60008381526008602052604081205592505b505b610a19816001610eed565b90506108ae565b5050505050565b6004602052600090815260409020805461028f90610e3e565b600060015b6006548111610b285760008181526008602052604090205415610b16576000818152600960205260409020544210610ae457600081815260086020526040902054600254610a939190610f05565b600255600081815260086020526040808220549051839286917fc25c39153635e38307a1ea5f18fb182aebb0037838d19ede4d6eddd0ad18822b9190a4600081815260086020526040812055610b16565b600081815260076020526040902054831415610b1657600081815260086020526040902054610b139083610eed565b91505b80610b2081610f1c565b915050610a45565b5060009182526003602052604090912055565b828054610b4790610e3e565b90600052602060002090601f016020900481019282610b695760008555610baf565b82601f10610b8257805160ff1916838001178555610baf565b82800160010185558215610baf579182015b82811115610baf578251825591602001919060010190610b94565b50610bbb929150610bbf565b5090565b5b80821115610bbb5760008155600101610bc0565b600060208284031215610be657600080fd5b5035919050565b60005b83811015610c08578181015183820152602001610bf0565b83811115610c17576000848401525b50505050565b6020815260008251806020840152610c3c816040850160208701610bed565b601f01601f19169190910160400192915050565b600060208284031215610c6257600080fd5b81356001600160a01b0381168114610c7957600080fd5b9392505050565b634e487b7160e01b600052604160045260246000fd5b600082601f830112610ca757600080fd5b813567ffffffffffffffff80821115610cc257610cc2610c80565b604051601f8301601f19908116603f01168101908282118183101715610cea57610cea610c80565b81604052838152866020858801011115610d0357600080fd5b836020870160208301376000602085830101528094505050505092915050565b600060208284031215610d3557600080fd5b813567ffffffffffffffff811115610d4c57600080fd5b610d5884828501610c96565b949350505050565b60008060008060808587031215610d7657600080fd5b843567ffffffffffffffff80821115610d8e57600080fd5b610d9a88838901610c96565b955060208701359450604087013593506060870135915080821115610dbe57600080fd5b50610dcb87828801610c96565b91505092959194509250565b60008060408385031215610dea57600080fd5b50508035926020909101359150565b60008060408385031215610e0c57600080fd5b823567ffffffffffffffff811115610e2357600080fd5b610e2f85828601610c96565b95602094909401359450505050565b600181811c90821680610e5257607f821691505b60208210811415610e7357634e487b7160e01b600052602260045260246000fd5b50919050565b60208082526022908201527f4f6e6c79206f776e65722063616e2063616c6c20746869732066756e6374696f604082015261371760f11b606082015260800190565b60008251610ecd818460208701610bed565b9190910192915050565b634e487b7160e01b600052601160045260246000fd5b60008219821115610f0057610f00610ed7565b500190565b600082821015610f1757610f17610ed7565b500390565b6000600019821415610f3057610f30610ed7565b506001019056fea2646970667358221220de2e7b9daabeb329efce9cc1efd256f9f55cde79670dc7fddaac37f640205a7264736f6c634300080a0033","bytecodeSha1":"b8bba298232254f480d5c09a01dfd44f4bb45f95","compiler":{"evm_version":"istanbul","optimizer":{"enabled":true,"runs":200},"version":"0.8.10+commit.fc410830"},"contractName":"Loyalty2","language":"Solidity","natspec":{"kind":"dev","methods":{},"version":1},"opcodes":"PUSH1 0x80 PUSH1 0x40 MSTORE CALLVALUE DUP1 ISZERO PUSH2 0x10 JUMPI PUSH1 0x0 DUP1 REVERT JUMPDEST POP PUSH1 0x4 CALLDATASIZE LT PUSH2 0xF5 JUMPI PUSH1 0x0 CALLDATALOAD PUSH1 0xE0 SHR DUP1 PUSH4 0x88BE6C59 GT PUSH2 0x97 JUMPI DUP1 PUSH4 0x9DCA2789 GT PUSH2 0x66 JUMPI DUP1 PUSH4 0x9DCA2789 EQ PUSH2 0x231 JUMPI DUP1 PUSH4 0xD0E23923 EQ PUSH2 0x244 JUMPI DUP1 PUSH4 0xD5ABEB01 EQ PUSH2 0x24D JUMPI DUP1 PUSH4 0xEB8B4C11 EQ PUSH2 0x256 JUMPI PUSH1 0x0 DUP1 REVERT JUMPDEST DUP1 PUSH4 0x88BE6C59 EQ PUSH2 0x1CD JUMPI DUP1 PUSH4 0x8DA5CB5B EQ PUSH2 0x1E0 JUMPI DUP1 PUSH4 0x96749E41 EQ PUSH2 0x20B JUMPI DUP1 PUSH4 0x9BB034FA EQ PUSH2 0x21E JUMPI PUSH1 0x0 DUP1 REVERT JUMPDEST DUP1 PUSH4 0x172659B3 GT PUSH2 0xD3 JUMPI DUP1 PUSH4 0x172659B3 EQ PUSH2 0x166 JUMPI DUP1 PUSH4 0x18160DDD EQ PUSH2 0x186 JUMPI DUP1 PUSH4 0x49B3B4D9 EQ PUSH2 0x18F JUMPI DUP1 PUSH4 0x60987984 EQ PUSH2 0x1BA JUMPI PUSH1 0x0 DUP1 REVERT JUMPDEST DUP1 PUSH4 0x96FF3BB EQ PUSH2 0xFA JUMPI DUP1 PUSH4 0xE5F8793 EQ PUSH2 0x123 JUMPI DUP1 PUSH4 0x13AF4035 EQ PUSH2 0x151 JUMPI JUMPDEST PUSH1 0x0 DUP1 REVERT JUMPDEST PUSH2 0x10D PUSH2 0x108 CALLDATASIZE PUSH1 0x4 PUSH2 0xBD4 JUMP JUMPDEST PUSH2 0x276 JUMP JUMPDEST PUSH1 0x40 MLOAD PUSH2 0x11A SWAP2 SWAP1 PUSH2 0xC1D JUMP JUMPDEST PUSH1 0x40 MLOAD DUP1 SWAP2 SUB SWAP1 RETURN JUMPDEST PUSH2 0x143 PUSH2 0x131 CALLDATASIZE PUSH1 0x4 PUSH2 0xBD4 JUMP JUMPDEST PUSH1 0x9 PUSH1 0x20 MSTORE PUSH1 0x0 SWAP1 DUP2 MSTORE PUSH1 0x40 SWAP1 KECCAK256 SLOAD DUP2 JUMP JUMPDEST PUSH1 0x40 MLOAD SWAP1 DUP2 MSTORE PUSH1 0x20 ADD PUSH2 0x11A JUMP JUMPDEST PUSH2 0x164 PUSH2 0x15F CALLDATASIZE PUSH1 0x4 PUSH2 0xC50 JUMP JUMPDEST PUSH2 0x310 JUMP JUMPDEST STOP JUMPDEST PUSH2 0x143 PUSH2 0x174 CALLDATASIZE PUSH1 0x4 PUSH2 0xBD4 JUMP JUMPDEST PUSH1 0x8 PUSH1 0x20 MSTORE PUSH1 0x0 SWAP1 DUP2 MSTORE PUSH1 0x40 SWAP1 KECCAK256 SLOAD DUP2 JUMP JUMPDEST PUSH2 0x143 PUSH1 0x2 SLOAD DUP2 JUMP JUMPDEST PUSH2 0x143 PUSH2 0x19D CALLDATASIZE PUSH1 0x4 PUSH2 0xD23 JUMP JUMPDEST DUP1 MLOAD PUSH1 0x20 DUP2 DUP4 ADD DUP2 ADD DUP1 MLOAD PUSH1 0x5 DUP3 MSTORE SWAP3 DUP3 ADD SWAP2 SWAP1 SWAP4 ADD KECCAK256 SWAP2 MSTORE SLOAD DUP2 JUMP JUMPDEST PUSH2 0x143 PUSH2 0x1C8 CALLDATASIZE PUSH1 0x4 PUSH2 0xD23 JUMP JUMPDEST PUSH2 0x38B JUMP JUMPDEST PUSH2 0x164 PUSH2 0x1DB CALLDATASIZE PUSH1 0x4 PUSH2 0xD60 JUMP JUMPDEST PUSH2 0x439 JUMP JUMPDEST PUSH1 0x0 SLOAD PUSH2 0x1F3 SWAP1 PUSH1 0x1 PUSH1 0x1 PUSH1 0xA0 SHL SUB AND DUP2 JUMP JUMPDEST PUSH1 0x40 MLOAD PUSH1 0x1 PUSH1 0x1 PUSH1 0xA0 SHL SUB SWAP1 SWAP2 AND DUP2 MSTORE PUSH1 0x20 ADD PUSH2 0x11A JUMP JUMPDEST PUSH2 0x164 PUSH2 0x219 CALLDATASIZE PUSH1 0x4 PUSH2 0xDD7 JUMP JUMPDEST PUSH2 0x667 JUMP JUMPDEST PUSH2 0x164 PUSH2 0x22C CALLDATASIZE PUSH1 0x4 PUSH2 0xDF9 JUMP JUMPDEST PUSH2 0x7E8 JUMP JUMPDEST PUSH2 0x10D PUSH2 0x23F CALLDATASIZE PUSH1 0x4 PUSH2 0xBD4 JUMP JUMPDEST PUSH2 0xA27 JUMP JUMPDEST PUSH2 0x143 PUSH1 0x6 SLOAD DUP2 JUMP JUMPDEST PUSH2 0x143 PUSH1 0x1 SLOAD DUP2 JUMP JUMPDEST PUSH2 0x143 PUSH2 0x264 CALLDATASIZE PUSH1 0x4 PUSH2 0xBD4 JUMP JUMPDEST PUSH1 0x7 PUSH1 0x20 MSTORE PUSH1 0x0 SWAP1 DUP2 MSTORE PUSH1 0x40 SWAP1 KECCAK256 SLOAD DUP2 JUMP JUMPDEST PUSH1 0xA PUSH1 0x20 MSTORE PUSH1 0x0 SWAP1 DUP2 MSTORE PUSH1 0x40 SWAP1 KECCAK256 DUP1 SLOAD PUSH2 0x28F SWAP1 PUSH2 0xE3E JUMP JUMPDEST DUP1 PUSH1 0x1F ADD PUSH1 0x20 DUP1 SWAP2 DIV MUL PUSH1 0x20 ADD PUSH1 0x40 MLOAD SWAP1 DUP2 ADD PUSH1 0x40 MSTORE DUP1 SWAP3 SWAP2 SWAP1 DUP2 DUP2 MSTORE PUSH1 0x20 ADD DUP3 DUP1 SLOAD PUSH2 0x2BB SWAP1 PUSH2 0xE3E JUMP JUMPDEST DUP1 ISZERO PUSH2 0x308 JUMPI DUP1 PUSH1 0x1F LT PUSH2 0x2DD JUMPI PUSH2 0x100 DUP1 DUP4 SLOAD DIV MUL DUP4 MSTORE SWAP2 PUSH1 0x20 ADD SWAP2 PUSH2 0x308 JUMP JUMPDEST DUP3 ADD SWAP2 SWAP1 PUSH1 0x0 MSTORE PUSH1 0x20 PUSH1 0x0 KECCAK256 SWAP1 JUMPDEST DUP2 SLOAD DUP2 MSTORE SWAP1 PUSH1 0x1 ADD SWAP1 PUSH1 0x20 ADD DUP1 DUP4 GT PUSH2 0x2EB JUMPI DUP3 SWAP1 SUB PUSH1 0x1F AND DUP3 ADD SWAP2 JUMPDEST POP POP POP POP POP DUP2 JUMP JUMPDEST PUSH1 0x0 SLOAD PUSH1 0x1 PUSH1 0x1 PUSH1 0xA0 SHL SUB AND CALLER EQ PUSH2 0x343 JUMPI PUSH1 0x40 MLOAD PUSH3 0x461BCD PUSH1 0xE5 SHL DUP2 MSTORE PUSH1 0x4 ADD PUSH2 0x33A SWAP1 PUSH2 0xE79 JUMP JUMPDEST PUSH1 0x40 MLOAD DUP1 SWAP2 SUB SWAP1 REVERT JUMPDEST PUSH1 0x0 DUP1 SLOAD PUSH1 0x1 PUSH1 0x1 PUSH1 0xA0 SHL SUB NOT AND PUSH1 0x1 PUSH1 0x1 PUSH1 0xA0 SHL SUB DUP4 AND SWAP1 DUP2 OR DUP3 SSTORE PUSH1 0x40 MLOAD SWAP1 SWAP2 PUSH32 0x2E3CDB0A1A6322F9160F5E33C21F317E6F18E77C771778F9BE6D0752F9F988B SWAP2 LOG2 POP JUMP JUMPDEST PUSH1 0x0 DUP1 SLOAD PUSH1 0x1 PUSH1 0x1 PUSH1 0xA0 SHL SUB AND CALLER EQ PUSH2 0x3B6 JUMPI PUSH1 0x40 MLOAD PUSH3 0x461BCD PUSH1 0xE5 SHL DUP2 MSTORE PUSH1 0x4 ADD PUSH2 0x33A SWAP1 PUSH2 0xE79 JUMP JUMPDEST PUSH1 0x0 DUP3 PUSH1 0x40 MLOAD PUSH1 0x20 ADD PUSH2 0x3C9 SWAP2 SWAP1 PUSH2 0xEBB JUMP JUMPDEST PUSH1 0x40 MLOAD PUSH1 0x20 DUP2 DUP4 SUB SUB DUP2 MSTORE SWAP1 PUSH1 0x40 MSTORE DUP1 MLOAD SWAP1 PUSH1 0x20 ADD KECCAK256 SWAP1 POP PUSH2 0x3EA DUP2 PUSH2 0xA40 JUMP JUMPDEST PUSH1 0x0 DUP2 DUP2 MSTORE PUSH1 0x3 PUSH1 0x20 MSTORE PUSH1 0x40 DUP1 DUP3 KECCAK256 SLOAD SWAP1 MLOAD SWAP1 SWAP2 DUP4 SWAP2 PUSH32 0xC29117027FB5683FD9ADCE4683C07052CA12CCC532277F5B8C3039C6735B7F29 SWAP2 SWAP1 LOG3 PUSH1 0x0 SWAP1 DUP2 MSTORE PUSH1 0x3 PUSH1 0x20 MSTORE PUSH1 0x40 SWAP1 KECCAK256 SLOAD SWAP3 SWAP2 POP POP JUMP JUMPDEST PUSH1 0x0 SLOAD PUSH1 0x1 PUSH1 0x1 PUSH1 0xA0 SHL SUB AND CALLER EQ PUSH2 0x463 JUMPI PUSH1 0x40 MLOAD PUSH3 0x461BCD PUSH1 0xE5 SHL DUP2 MSTORE PUSH1 0x4 ADD PUSH2 0x33A SWAP1 PUSH2 0xE79 JUMP JUMPDEST PUSH1 0x1 SLOAD DUP4 PUSH1 0x2 SLOAD PUSH2 0x474 SWAP2 SWAP1 PUSH2 0xEED JUMP JUMPDEST GT ISZERO PUSH2 0x4C2 JUMPI PUSH1 0x40 MLOAD PUSH3 0x461BCD PUSH1 0xE5 SHL DUP2 MSTORE PUSH1 0x20 PUSH1 0x4 DUP3 ADD MSTORE PUSH1 0x1E PUSH1 0x24 DUP3 ADD MSTORE PUSH32 0x4D6178696D756D20706F696E7473206C696D69742065786365656465642E0000 PUSH1 0x44 DUP3 ADD MSTORE PUSH1 0x64 ADD PUSH2 0x33A JUMP JUMPDEST TIMESTAMP DUP3 GT PUSH2 0x520 JUMPI PUSH1 0x40 MLOAD PUSH3 0x461BCD PUSH1 0xE5 SHL DUP2 MSTORE PUSH1 0x20 PUSH1 0x4 DUP3 ADD MSTORE PUSH1 0x26 PUSH1 0x24 DUP3 ADD MSTORE PUSH32 0x45787069727920646174652073686F756C64206E6F7420626520696E20746865 PUSH1 0x44 DUP3 ADD MSTORE PUSH6 0x103830B9BA17 PUSH1 0xD1 SHL PUSH1 0x64 DUP3 ADD MSTORE PUSH1 0x84 ADD PUSH2 0x33A JUMP JUMPDEST PUSH1 0x0 DUP5 PUSH1 0x40 MLOAD PUSH1 0x20 ADD PUSH2 0x533 SWAP2 SWAP1 PUSH2 0xEBB JUMP JUMPDEST PUSH1 0x40 MLOAD PUSH1 0x20 DUP2 DUP4 SUB SUB DUP2 MSTORE SWAP1 PUSH1 0x40 MSTORE DUP1 MLOAD SWAP1 PUSH1 0x20 ADD KECCAK256 SWAP1 POP PUSH2 0x554 DUP2 PUSH2 0xA40 JUMP JUMPDEST PUSH1 0x0 DUP2 DUP2 MSTORE PUSH1 0x3 PUSH1 0x20 MSTORE PUSH1 0x40 SWAP1 KECCAK256 SLOAD PUSH2 0x56E SWAP1 DUP6 SWAP1 PUSH2 0xEED JUMP JUMPDEST PUSH1 0x0 DUP3 DUP2 MSTORE PUSH1 0x3 PUSH1 0x20 MSTORE PUSH1 0x40 SWAP1 KECCAK256 SSTORE PUSH1 0x6 SLOAD PUSH2 0x58B SWAP1 PUSH1 0x1 PUSH2 0xEED JUMP JUMPDEST PUSH1 0x6 DUP2 SWAP1 SSTORE PUSH1 0x0 SWAP1 DUP2 MSTORE PUSH1 0x7 PUSH1 0x20 SWAP1 DUP2 MSTORE PUSH1 0x40 DUP1 DUP4 KECCAK256 DUP5 SWAP1 SSTORE DUP4 DUP4 MSTORE PUSH1 0x4 DUP3 MSTORE SWAP1 SWAP2 KECCAK256 DUP7 MLOAD PUSH2 0x5BC SWAP3 DUP9 ADD SWAP1 PUSH2 0xB3B JUMP JUMPDEST POP DUP1 PUSH1 0x5 DUP7 PUSH1 0x40 MLOAD PUSH2 0x5CE SWAP2 SWAP1 PUSH2 0xEBB JUMP JUMPDEST SWAP1 DUP2 MSTORE PUSH1 0x40 DUP1 MLOAD PUSH1 0x20 SWAP3 DUP2 SWAP1 SUB DUP4 ADD SWAP1 KECCAK256 SWAP3 SWAP1 SWAP3 SSTORE PUSH1 0x6 DUP1 SLOAD PUSH1 0x0 SWAP1 DUP2 MSTORE PUSH1 0x8 DUP4 MSTORE DUP4 DUP2 KECCAK256 DUP9 SWAP1 SSTORE DUP2 SLOAD DUP2 MSTORE PUSH1 0x9 DUP4 MSTORE DUP4 DUP2 KECCAK256 DUP8 SWAP1 SSTORE SWAP1 SLOAD DUP2 MSTORE PUSH1 0xA DUP3 MSTORE SWAP2 SWAP1 SWAP2 KECCAK256 DUP4 MLOAD PUSH2 0x61E SWAP3 DUP6 ADD SWAP1 PUSH2 0xB3B JUMP JUMPDEST POP DUP4 PUSH1 0x2 SLOAD PUSH2 0x62D SWAP2 SWAP1 PUSH2 0xEED JUMP JUMPDEST PUSH1 0x2 SSTORE PUSH1 0x6 SLOAD PUSH1 0x40 MLOAD DUP6 SWAP1 DUP4 SWAP1 PUSH32 0x339F6FE8BF902A0DDA530E650C8A3DE3F3E329E9FB61C8035822C2D68ACB04C3 SWAP1 PUSH1 0x0 SWAP1 LOG4 POP POP POP POP POP JUMP JUMPDEST PUSH1 0x0 SLOAD PUSH1 0x1 PUSH1 0x1 PUSH1 0xA0 SHL SUB AND CALLER EQ PUSH2 0x691 JUMPI PUSH1 0x40 MLOAD PUSH3 0x461BCD PUSH1 0xE5 SHL DUP2 MSTORE PUSH1 0x4 ADD PUSH2 0x33A SWAP1 PUSH2 0xE79 JUMP JUMPDEST PUSH1 0x0 DUP3 DUP2 MSTORE PUSH1 0x9 PUSH1 0x20 MSTORE PUSH1 0x40 SWAP1 KECCAK256 SLOAD TIMESTAMP LT PUSH2 0x6EE JUMPI PUSH1 0x40 MLOAD PUSH3 0x461BCD PUSH1 0xE5 SHL DUP2 MSTORE PUSH1 0x20 PUSH1 0x4 DUP3 ADD MSTORE PUSH1 0x1B PUSH1 0x24 DUP3 ADD MSTORE PUSH32 0x436F75706F6E2068617320616C726561647920657870697265642E0000000000 PUSH1 0x44 DUP3 ADD MSTORE PUSH1 0x64 ADD PUSH2 0x33A JUMP JUMPDEST PUSH1 0x1 SLOAD PUSH1 0x0 DUP4 DUP2 MSTORE PUSH1 0x8 PUSH1 0x20 MSTORE PUSH1 0x40 SWAP1 KECCAK256 SLOAD PUSH1 0x2 SLOAD PUSH2 0x70E SWAP1 DUP5 SWAP1 PUSH2 0xEED JUMP JUMPDEST PUSH2 0x718 SWAP2 SWAP1 PUSH2 0xF05 JUMP JUMPDEST GT ISZERO PUSH2 0x772 JUMPI PUSH1 0x40 MLOAD PUSH3 0x461BCD PUSH1 0xE5 SHL DUP2 MSTORE PUSH1 0x20 PUSH1 0x4 DUP3 ADD MSTORE PUSH1 0x24 DUP1 DUP3 ADD MSTORE PUSH32 0x506F696E7473206C696D697420686173206578636565646564206D6178206C69 PUSH1 0x44 DUP3 ADD MSTORE PUSH4 0x36B4BA17 PUSH1 0xE1 SHL PUSH1 0x64 DUP3 ADD MSTORE PUSH1 0x84 ADD PUSH2 0x33A JUMP JUMPDEST PUSH1 0x0 DUP3 DUP2 MSTORE PUSH1 0x8 PUSH1 0x20 MSTORE PUSH1 0x40 SWAP1 KECCAK256 SLOAD PUSH1 0x2 SLOAD PUSH2 0x78F SWAP1 DUP4 SWAP1 PUSH2 0xEED JUMP JUMPDEST PUSH2 0x799 SWAP2 SWAP1 PUSH2 0xF05 JUMP JUMPDEST PUSH1 0x2 SSTORE PUSH1 0x0 DUP3 DUP2 MSTORE PUSH1 0x8 PUSH1 0x20 SWAP1 DUP2 MSTORE PUSH1 0x40 DUP1 DUP4 KECCAK256 DUP5 SWAP1 SSTORE PUSH1 0x7 SWAP1 SWAP2 MSTORE DUP1 DUP3 KECCAK256 SLOAD SWAP1 MLOAD DUP5 SWAP3 DUP5 SWAP3 SWAP2 PUSH32 0x3F89F2657DFEA821783E53BE29FBFAD773DE186E57D2F5620CE98C51A2921B21 SWAP2 SWAP1 LOG4 POP POP JUMP JUMPDEST PUSH1 0x0 SLOAD PUSH1 0x1 PUSH1 0x1 PUSH1 0xA0 SHL SUB AND CALLER EQ PUSH2 0x812 JUMPI PUSH1 0x40 MLOAD PUSH3 0x461BCD PUSH1 0xE5 SHL DUP2 MSTORE PUSH1 0x4 ADD PUSH2 0x33A SWAP1 PUSH2 0xE79 JUMP JUMPDEST PUSH1 0x0 DUP3 PUSH1 0x40 MLOAD PUSH1 0x20 ADD PUSH2 0x825 SWAP2 SWAP1 PUSH2 0xEBB JUMP JUMPDEST PUSH1 0x40 MLOAD PUSH1 0x20 DUP2 DUP4 SUB SUB DUP2 MSTORE SWAP1 PUSH1 0x40 MSTORE DUP1 MLOAD SWAP1 PUSH1 0x20 ADD KECCAK256 SWAP1 POP DUP2 PUSH2 0x847 DUP5 PUSH2 0x38B JUMP JUMPDEST LT ISZERO PUSH2 0x8A9 JUMPI PUSH1 0x40 MLOAD PUSH3 0x461BCD PUSH1 0xE5 SHL DUP2 MSTORE PUSH1 0x20 PUSH1 0x4 DUP3 ADD MSTORE PUSH1 0x2B PUSH1 0x24 DUP3 ADD MSTORE PUSH32 0x5573657220646F6573206E6F74206861766520656E6F75676820706F696E7473 PUSH1 0x44 DUP3 ADD MSTORE PUSH11 0x103A37903932B232B2B697 PUSH1 0xA9 SHL PUSH1 0x64 DUP3 ADD MSTORE PUSH1 0x84 ADD PUSH2 0x33A JUMP JUMPDEST PUSH1 0x0 PUSH1 0x1 JUMPDEST DUP4 DUP3 LT DUP1 ISZERO PUSH2 0x8BF JUMPI POP PUSH1 0x6 SLOAD DUP2 GT ISZERO JUMPDEST ISZERO PUSH2 0xA20 JUMPI PUSH1 0x0 DUP2 DUP2 MSTORE PUSH1 0x8 PUSH1 0x20 MSTORE PUSH1 0x40 SWAP1 KECCAK256 SLOAD ISZERO DUP1 ISZERO SWAP1 PUSH2 0x8EE JUMPI POP PUSH1 0x0 DUP2 DUP2 MSTORE PUSH1 0x7 PUSH1 0x20 MSTORE PUSH1 0x40 SWAP1 KECCAK256 SLOAD DUP4 EQ JUMPDEST ISZERO PUSH2 0xA0E JUMPI PUSH1 0x0 PUSH2 0x8FF DUP4 DUP7 PUSH2 0xF05 JUMP JUMPDEST PUSH1 0x0 DUP4 DUP2 MSTORE PUSH1 0x8 PUSH1 0x20 MSTORE PUSH1 0x40 SWAP1 KECCAK256 SLOAD SWAP1 SWAP2 POP DUP2 GT PUSH2 0x988 JUMPI DUP1 PUSH1 0x2 SLOAD PUSH2 0x925 SWAP2 SWAP1 PUSH2 0xF05 JUMP JUMPDEST PUSH1 0x2 SSTORE PUSH1 0x40 MLOAD DUP3 SWAP1 DUP3 SWAP1 DUP7 SWAP1 PUSH32 0x12F4285B54EA369A9EBBA8573A153D19BD6E7973C2F6C2021E0551D7B03BAC2C SWAP1 PUSH1 0x0 SWAP1 LOG4 PUSH1 0x0 DUP3 DUP2 MSTORE PUSH1 0x8 PUSH1 0x20 MSTORE PUSH1 0x40 SWAP1 KECCAK256 SLOAD PUSH2 0x971 SWAP1 DUP3 SWAP1 PUSH2 0xF05 JUMP JUMPDEST PUSH1 0x0 DUP4 DUP2 MSTORE PUSH1 0x8 PUSH1 0x20 MSTORE PUSH1 0x40 SWAP1 KECCAK256 SSTORE DUP5 SWAP3 POP PUSH2 0xA0C JUMP JUMPDEST PUSH1 0x0 DUP3 DUP2 MSTORE PUSH1 0x8 PUSH1 0x20 MSTORE PUSH1 0x40 SWAP1 KECCAK256 SLOAD PUSH1 0x2 SLOAD PUSH2 0x9A4 SWAP2 SWAP1 PUSH2 0xF05 JUMP JUMPDEST PUSH1 0x2 SSTORE PUSH1 0x0 DUP3 DUP2 MSTORE PUSH1 0x8 PUSH1 0x20 MSTORE PUSH1 0x40 DUP1 DUP3 KECCAK256 SLOAD SWAP1 MLOAD DUP5 SWAP3 DUP8 SWAP2 PUSH32 0x12F4285B54EA369A9EBBA8573A153D19BD6E7973C2F6C2021E0551D7B03BAC2C SWAP2 SWAP1 LOG4 PUSH1 0x0 DUP3 DUP2 MSTORE PUSH1 0x8 PUSH1 0x20 MSTORE PUSH1 0x40 SWAP1 KECCAK256 SLOAD PUSH2 0x9FA SWAP1 DUP5 PUSH2 0xEED JUMP JUMPDEST PUSH1 0x0 DUP4 DUP2 MSTORE PUSH1 0x8 PUSH1 0x20 MSTORE PUSH1 0x40 DUP2 KECCAK256 SSTORE SWAP3 POP JUMPDEST POP JUMPDEST PUSH2 0xA19 DUP2 PUSH1 0x1 PUSH2 0xEED JUMP JUMPDEST SWAP1 POP PUSH2 0x8AE JUMP JUMPDEST POP POP POP POP POP JUMP JUMPDEST PUSH1 0x4 PUSH1 0x20 MSTORE PUSH1 0x0 SWAP1 DUP2 MSTORE PUSH1 0x40 SWAP1 KECCAK256 DUP1 SLOAD PUSH2 0x28F SWAP1 PUSH2 0xE3E JUMP JUMPDEST PUSH1 0x0 PUSH1 0x1 JUMPDEST PUSH1 0x6 SLOAD DUP2 GT PUSH2 0xB28 JUMPI PUSH1 0x0 DUP2 DUP2 MSTORE PUSH1 0x8 PUSH1 0x20 MSTORE PUSH1 0x40 SWAP1 KECCAK256 SLOAD ISZERO PUSH2 0xB16 JUMPI PUSH1 0x0 DUP2 DUP2 MSTORE PUSH1 0x9 PUSH1 0x20 MSTORE PUSH1 0x40 SWAP1 KECCAK256 SLOAD TIMESTAMP LT PUSH2 0xAE4 JUMPI PUSH1 0x0 DUP2 DUP2 MSTORE PUSH1 0x8 PUSH1 0x20 MSTORE PUSH1 0x40 SWAP1 KECCAK256 SLOAD PUSH1 0x2 SLOAD PUSH2 0xA93 SWAP2 SWAP1 PUSH2 0xF05 JUMP JUMPDEST PUSH1 0x2 SSTORE PUSH1 0x0 DUP2 DUP2 MSTORE PUSH1 0x8 PUSH1 0x20 MSTORE PUSH1 0x40 DUP1 DUP3 KECCAK256 SLOAD SWAP1 MLOAD DUP4 SWAP3 DUP7 SWAP2 PUSH32 0xC25C39153635E38307A1EA5F18FB182AEBB0037838D19EDE4D6EDDD0AD18822B SWAP2 SWAP1 LOG4 PUSH1 0x0 DUP2 DUP2 MSTORE PUSH1 0x8 PUSH1 0x20 MSTORE PUSH1 0x40 DUP2 KECCAK256 SSTORE PUSH2 0xB16 JUMP JUMPDEST PUSH1 0x0 DUP2 DUP2 MSTORE PUSH1 0x7 PUSH1 0x20 MSTORE PUSH1 0x40 SWAP1 KECCAK256 SLOAD DUP4 EQ ISZERO PUSH2 0xB16 JUMPI PUSH1 0x0 DUP2 DUP2 MSTORE PUSH1 0x8 PUSH1 0x20 MSTORE PUSH1 0x40 SWAP1 KECCAK256 SLOAD PUSH2 0xB13 SWAP1 DUP4 PUSH2 0xEED JUMP JUMPDEST SWAP2 POP JUMPDEST DUP1 PUSH2 0xB20 DUP2 PUSH2 0xF1C JUMP JUMPDEST SWAP2 POP POP PUSH2 0xA45 JUMP JUMPDEST POP PUSH1 0x0 SWAP2 DUP3 MSTORE PUSH1 0x3 PUSH1 0x20 MSTORE PUSH1 0x40 SWAP1 SWAP2 KECCAK256 SSTORE JUMP JUMPDEST DUP3 DUP1 SLOAD PUSH2 0xB47 SWAP1 PUSH2 0xE3E JUMP JUMPDEST SWAP1 PUSH1 0x0 MSTORE PUSH1 0x20 PUSH1 0x0 KECCAK256 SWAP1 PUSH1 0x1F ADD PUSH1 0x20 SWAP1 DIV DUP2 ADD SWAP3 DUP3 PUSH2 0xB69 JUMPI PUSH1 0x0 DUP6 SSTORE PUSH2 0xBAF JUMP JUMPDEST DUP3 PUSH1 0x1F LT PUSH2 0xB82 JUMPI DUP1 MLOAD PUSH1 0xFF NOT AND DUP4 DUP1 ADD OR DUP6 SSTORE PUSH2 0xBAF JUMP JUMPDEST DUP3 DUP1 ADD PUSH1 0x1 ADD DUP6 SSTORE DUP3 ISZERO PUSH2 0xBAF JUMPI SWAP2 DUP3 ADD JUMPDEST DUP3 DUP2 GT ISZERO PUSH2 0xBAF JUMPI DUP3 MLOAD DUP3 SSTORE SWAP2 PUSH1 0x20 ADD SWAP2 SWAP1 PUSH1 0x1 ADD SWAP1 PUSH2 0xB94 JUMP JUMPDEST POP PUSH2 0xBBB SWAP3 SWAP2 POP PUSH2 0xBBF JUMP JUMPDEST POP SWAP1 JUMP JUMPDEST JUMPDEST DUP1 DUP3 GT ISZERO PUSH2 0xBBB JUMPI PUSH1 0x0 DUP2 SSTORE PUSH1 0x1 ADD PUSH2 0xBC0 JUMP JUMPDEST PUSH1 0x0 PUSH1 0x20 DUP3 DUP5 SUB SLT ISZERO PUSH2 0xBE6 JUMPI PUSH1 0x0 DUP1 REVERT JUMPDEST POP CALLDATALOAD SWAP2 SWAP1 POP JUMP JUMPDEST PUSH1 0x0 JUMPDEST DUP4 DUP2 LT ISZERO PUSH2 0xC08 JUMPI DUP2 DUP2 ADD MLOAD DUP4 DUP3 ADD MSTORE PUSH1 0x20 ADD PUSH2 0xBF0 JUMP JUMPDEST DUP4 DUP2 GT ISZERO PUSH2 0xC17 JUMPI PUSH1 0x0 DUP5 DUP5 ADD MSTORE JUMPDEST POP POP POP POP JUMP JUMPDEST PUSH1 0x20 DUP2 MSTORE PUSH1 0x0 DUP3 MLOAD DUP1 PUSH1 0x20 DUP5 ADD MSTORE PUSH2 0xC3C DUP2 PUSH1 0x40 DUP6 ADD PUSH1 0x20 DUP8 ADD PUSH2 0xBED JUMP JUMPDEST PUSH1 0x1F ADD PUSH1 0x1F NOT AND SWAP2 SWAP1 SWAP2 ADD PUSH1 0x40 ADD SWAP3 SWAP2 POP POP JUMP JUMPDEST PUSH1 0x0 PUSH1 0x20 DUP3 DUP5 SUB SLT ISZERO PUSH2 0xC62 JUMPI PUSH1 0x0 DUP1 REVERT JUMPDEST DUP2 CALLDATALOAD PUSH1 0x1 PUSH1 0x1 PUSH1 0xA0 SHL SUB DUP2 AND DUP2 EQ PUSH2 0xC79 JUMPI PUSH1 0x0 DUP1 REVERT JUMPDEST SWAP4 SWAP3 POP POP POP JUMP JUMPDEST PUSH4 0x4E487B71 PUSH1 0xE0 SHL PUSH1 0x0 MSTORE PUSH1 0x41 PUSH1 0x4 MSTORE PUSH1 0x24 PUSH1 0x0 REVERT JUMPDEST PUSH1 0x0 DUP3 PUSH1 0x1F DUP4 ADD SLT PUSH2 0xCA7 JUMPI PUSH1 0x0 DUP1 REVERT JUMPDEST DUP2 CALLDATALOAD PUSH8 0xFFFFFFFFFFFFFFFF DUP1 DUP3 GT ISZERO PUSH2 0xCC2 JUMPI PUSH2 0xCC2 PUSH2 0xC80 JUMP JUMPDEST PUSH1 0x40 MLOAD PUSH1 0x1F DUP4 ADD PUSH1 0x1F NOT SWAP1 DUP2 AND PUSH1 0x3F ADD AND DUP2 ADD SWAP1 DUP3 DUP3 GT DUP2 DUP4 LT OR ISZERO PUSH2 0xCEA JUMPI PUSH2 0xCEA PUSH2 0xC80 JUMP JUMPDEST DUP2 PUSH1 0x40 MSTORE DUP4 DUP2 MSTORE DUP7 PUSH1 0x20 DUP6 DUP9 ADD ADD GT ISZERO PUSH2 0xD03 JUMPI PUSH1 0x0 DUP1 REVERT JUMPDEST DUP4 PUSH1 0x20 DUP8 ADD PUSH1 0x20 DUP4 ADD CALLDATACOPY PUSH1 0x0 PUSH1 0x20 DUP6 DUP4 ADD ADD MSTORE DUP1 SWAP5 POP POP POP POP POP SWAP3 SWAP2 POP POP JUMP JUMPDEST PUSH1 0x0 PUSH1 0x20 DUP3 DUP5 SUB SLT ISZERO PUSH2 0xD35 JUMPI PUSH1 0x0 DUP1 REVERT JUMPDEST DUP2 CALLDATALOAD PUSH8 0xFFFFFFFFFFFFFFFF DUP2 GT ISZERO PUSH2 0xD4C JUMPI PUSH1 0x0 DUP1 REVERT JUMPDEST PUSH2 0xD58 DUP5 DUP3 DUP6 ADD PUSH2 0xC96 JUMP JUMPDEST SWAP5 SWAP4 POP POP POP POP JUMP JUMPDEST PUSH1 0x0 DUP1 PUSH1 0x0 DUP1 PUSH1 0x80 DUP6 DUP8 SUB SLT ISZERO PUSH2 0xD76 JUMPI PUSH1 0x0 DUP1 REVERT JUMPDEST DUP5 CALLDATALOAD PUSH8 0xFFFFFFFFFFFFFFFF DUP1 DUP3 GT ISZERO PUSH2 0xD8E JUMPI PUSH1 0x0 DUP1 REVERT JUMPDEST PUSH2 0xD9A DUP9 DUP4 DUP10 ADD PUSH2 0xC96 JUMP JUMPDEST SWAP6 POP PUSH1 0x20 DUP8 ADD CALLDATALOAD SWAP5 POP PUSH1 0x40 DUP8 ADD CALLDATALOAD SWAP4 POP PUSH1 0x60 DUP8 ADD CALLDATALOAD SWAP2 POP DUP1 DUP3 GT ISZERO PUSH2 0xDBE JUMPI PUSH1 0x0 DUP1 REVERT JUMPDEST POP PUSH2 0xDCB DUP8 DUP3 DUP9 ADD PUSH2 0xC96 JUMP JUMPDEST SWAP2 POP POP SWAP3 SWAP6 SWAP2 SWAP5 POP SWAP3 POP JUMP JUMPDEST PUSH1 0x0 DUP1 PUSH1 0x40 DUP4 DUP6 SUB SLT ISZERO PUSH2 0xDEA JUMPI PUSH1 0x0 DUP1 REVERT JUMPDEST POP POP DUP1 CALLDATALOAD SWAP3 PUSH1 0x20 SWAP1 SWAP2 ADD CALLDATALOAD SWAP2 POP JUMP JUMPDEST PUSH1 0x0 DUP1 PUSH1 0x40 DUP4 DUP6 SUB SLT ISZERO PUSH2 0xE0C JUMPI PUSH1 0x0 DUP1 REVERT JUMPDEST DUP3 CALLDATALOAD PUSH8 0xFFFFFFFFFFFFFFFF DUP2 GT ISZERO PUSH2 0xE23 JUMPI PUSH1 0x0 DUP1 REVERT JUMPDEST PUSH2 0xE2F DUP6 DUP3 DUP7 ADD PUSH2 0xC96 JUMP JUMPDEST SWAP6 PUSH1 0x20 SWAP5 SWAP1 SWAP5 ADD CALLDATALOAD SWAP5 POP POP POP POP JUMP JUMPDEST PUSH1 0x1 DUP2 DUP2 SHR SWAP1 DUP3 AND DUP1 PUSH2 0xE52 JUMPI PUSH1 0x7F DUP3 AND SWAP2 POP JUMPDEST PUSH1 0x20 DUP3 LT DUP2 EQ ISZERO PUSH2 0xE73 JUMPI PUSH4 0x4E487B71 PUSH1 0xE0 SHL PUSH1 0x0 MSTORE PUSH1 0x22 PUSH1 0x4 MSTORE PUSH1 0x24 PUSH1 0x0 REVERT JUMPDEST POP SWAP2 SWAP1 POP JUMP JUMPDEST PUSH1 0x20 DUP1 DUP3 MSTORE PUSH1 0x22 SWAP1 DUP3 ADD MSTORE PUSH32 0x4F6E6C79206F776E65722063616E2063616C6C20746869732066756E6374696F PUSH1 0x40 DUP3 ADD MSTORE PUSH2 0x3717 PUSH1 0xF1 SHL PUSH1 0x60 DUP3 ADD MSTORE PUSH1 0x80 ADD SWAP1 JUMP JUMPDEST PUSH1 0x0 DUP3 MLOAD PUSH2 0xECD DUP2 DUP5 PUSH1 0x20 DUP8 ADD PUSH2 0xBED JUMP JUMPDEST SWAP2 SWAP1 SWAP2 ADD SWAP3 SWAP2 POP POP JUMP JUMPDEST PUSH4 0x4E487B71 PUSH1 0xE0 SHL PUSH1 0x0 MSTORE PUSH1 0x11 PUSH1 0x4 MSTORE PUSH1 0x24 PUSH1 0x0 REVERT JUMPDEST PUSH1 0x0 DUP3 NOT DUP3 GT ISZERO PUSH2 0xF00 JUMPI PUSH2 0xF00 PUSH2 0xED7 JUMP JUMPDEST POP ADD SWAP1 JUMP JUMPDEST PUSH1 0x0 DUP3 DUP3 LT ISZERO PUSH2 0xF17 JUMPI PUSH2 0xF17 PUSH2 0xED7 JUMP JUMPDEST POP SUB SWAP1 JUMP JUMPDEST PUSH1 0x0 PUSH1 0x0 NOT DUP3 EQ ISZERO PUSH2 0xF30 JUMPI PUSH2 0xF30 PUSH2 0xED7 JUMP JUMPDEST POP PUSH1 0x1 ADD SWAP1 JUMP INVALID LOG2 PUSH5 0x6970667358 0x22 SLT KECCAK256 0xDE 0x2E PUSH28 0x9DAABEB329EFCE9CC1EFD256F9F55CDE79670DC7FDDAAC37F640205A PUSH19 0x64736F6C634300080A00330000000000000000 ","sha1":"0c6ae8e9570a37af9c936c2247de240e49978a7e","source":"// SPDX-License-Identifier: MIT\n\npragma solidity ^0.8.0;\n\n\ncontract Loyalty2 {\n\n    //owner data\n    address public owner;\n\n    // points data\n    uint256 public maxSupply; // Maximum number of points that can be minted.\n    uint256 public totalSupply; // Total points in circulation at the time of enquiry.\n\n   //user data\n   mapping(bytes32 => uint256) userIdToPoints;\n   mapping(bytes32 => string) public userIdToString;\n   mapping(string => bytes32) public userStringToId;\n\n   //coupon data\n   uint256 public couponCount = 0;\n   mapping(uint256 => bytes32) public couponIdToUserId;\n   mapping(uint256 => uint256) public couponIdToPoints;\n   mapping(uint256 => uint256) public couponIdToExpiry;\n   mapping(uint256 => string) public couponIdToRefVia;\n\n   //events\n   event pointsAllocated(bytes32 indexed _userId, uint256 indexed _points, uint256 indexed _couponId);\n   event pointsExpired(bytes32 indexed _userId, uint256 indexed _points, uint256 indexed _couponId);\n   event pointsRedeemed(bytes32 indexed _userId, uint256 indexed _points, uint256 indexed _couponId);\n   event userPoints (bytes32 indexed _userId, uint256 indexed _points);\n   event ownerSet (address indexed _newOwner);\n   event couponModified (bytes32 indexed _userId, uint256 indexed _points, uint256 indexed _couponId);\n\n   //owner functions\n\n   // Set the max supply of the points during contract creation.\n    constructor (uint256 _maxSupply) {\n        maxSupply = _maxSupply;\n        owner = msg.sender;\n    }\n    \n    //Modifier to check if caller is the owner of this contract. Used on most state change functions.\n    modifier onlyOwner () {\n        require (msg.sender == owner, \"Only owner can call this function.\");\n        _;\n    }\n\n    // This function can transfer the ownership of the contract. Only existing owner can transfer it to the new owner.\n    function setOwner(address _newOwner) public onlyOwner {\n        owner = _newOwner;\n        emit ownerSet(owner);\n    }\n\n    // earn points\n    //The function creates a new coupon and assigns the input data to the coupon.\n    function allocatePoints(string memory _userIdString, uint256 _points, uint256 _expiryDate, string memory _refVia) public onlyOwner {\n       require (totalSupply + _points <= maxSupply, \"Maximum points limit exceeded.\");\n       require(_expiryDate > block.timestamp, \"Expiry date should not be in the past.\");\n       bytes32 _userId = keccak256(abi.encodePacked(_userIdString));\n       updateUserPoints(_userId);\n       userIdToPoints[_userId] = userIdToPoints[_userId] + _points;\n       couponCount = couponCount + 1;\n       couponIdToUserId[couponCount] = _userId;\n       userIdToString[_userId] = _userIdString;\n       userStringToId[_userIdString] = _userId;\n       couponIdToPoints[couponCount] = _points;\n       couponIdToExpiry[couponCount] = _expiryDate;\n       couponIdToRefVia[couponCount] = _refVia;\n       totalSupply = totalSupply + _points;\n       emit pointsAllocated(_userId, _points, couponCount);\n    } \n\n\n    // Internal functions\n\n   \n    // Goes through all coupon Ids. Checks for the expired coupons and burns the points of the expired coupons. Filters the coupons with the user ID. Adds up all the points of a user's coupons and updates the 'userIdToPoints' mapping.\n    function updateUserPoints(bytes32 _userId) private {\n       uint256 points = 0;\n       for (uint256 couponId = 1; couponId <= couponCount; couponId++) {\n           if (couponIdToPoints[couponId] > 0) {\n               if (couponIdToExpiry[couponId] <= block.timestamp) {\n                   totalSupply = totalSupply - couponIdToPoints[couponId];\n                   emit pointsExpired(_userId, couponIdToPoints[couponId], couponId);\n                   couponIdToPoints[couponId] = 0;\n               } else {\n                   if (couponIdToUserId[couponId] == _userId) {\n                   points = points + couponIdToPoints[couponId];\n                    }\n               }               \n           }\n        }\n        userIdToPoints[_userId] = points;\n    }\n\n    //gets points available to a user. calls the 'updateUserPoints' function first to check for expired coupons. returns the 'userIdToPoints' mapping.\n    function getUserPoints (string memory _userIdString) public onlyOwner returns(uint256) {\n        bytes32 _userId = keccak256(abi.encodePacked(_userIdString));\n        updateUserPoints(_userId);\n        emit userPoints(_userId, userIdToPoints[_userId]);   \n        return userIdToPoints[_userId];\n    }\n\n    //redeemUserPoints\n    // The function will check the current points the user has. Goes through all the coupons ids in increasing order. Filters the coupons with user Id and availability of points. Subtracts points from coupon Ids untill the desired number of points have been extracted.\n    function redeemUserPoints (string memory _userIdString, uint256 _points) public onlyOwner {\n        bytes32 _userId = keccak256(abi.encodePacked(_userIdString));\n        require(getUserPoints(_userIdString) >= _points, \"User does not have enough points to redeem.\");\n        uint256 redeemedpoints = 0;\n        uint256 couponId = 1;\n        while (redeemedpoints < _points && couponId <= couponCount) {\n            if (couponIdToPoints[couponId] > 0 && couponIdToUserId[couponId] == _userId) {\n                uint256 pointsToBeRedeemed = _points - redeemedpoints;\n                if (couponIdToPoints[couponId] >= pointsToBeRedeemed ) {\n                    totalSupply = totalSupply - pointsToBeRedeemed;\n                    emit pointsRedeemed(_userId, pointsToBeRedeemed, couponId);\n                    couponIdToPoints[couponId] = couponIdToPoints[couponId] - pointsToBeRedeemed;\n                    redeemedpoints = _points;\n                } else {                    \n                    totalSupply = totalSupply - couponIdToPoints[couponId];\n                    emit pointsRedeemed(_userId, couponIdToPoints[couponId], couponId);\n                    redeemedpoints = redeemedpoints + couponIdToPoints[couponId];\n                    couponIdToPoints[couponId] = 0;                    \n                }\n            }\n            couponId = couponId + 1;\n        }        \n    }\n\n    // Modify the number of points in a coupon. Checks the coupon for expiry first. Then replaces the coupon points with new points.\n    function modifyCouponPoints (uint256 _couponId, uint256 _points ) public onlyOwner {\n        require (couponIdToExpiry[_couponId] > block.timestamp, \"Coupon has already expired.\");\n        require (totalSupply + _points - couponIdToPoints[_couponId] <= maxSupply, \"Points limit has exceeded max limit.\");\n        totalSupply = totalSupply + _points - couponIdToPoints[_couponId];\n        couponIdToPoints[_couponId] = _points;\n        emit couponModified(couponIdToUserId[_couponId], couponIdToPoints[_couponId], _couponId);        \n    }\n}","sourcePath":"contracts/loyalty2.sol","type":"contract"}